{
	"contracts/Voting.sol": {
		"Voting": {
			"abi": [
				{
					"inputs": [
						{
							"internalType": "address",
							"name": "_nodeStorageAddress",
							"type": "address"
						},
						{
							"internalType": "uint256",
							"name": "_initialQuorumPercent",
							"type": "uint256"
						}
					],
					"stateMutability": "nonpayable",
					"type": "constructor"
				},
				{
					"anonymous": false,
					"inputs": [
						{
							"indexed": true,
							"internalType": "address",
							"name": "removedNode",
							"type": "address"
						}
					],
					"name": "NodeRemoved",
					"type": "event"
				},
				{
					"anonymous": false,
					"inputs": [
						{
							"indexed": true,
							"internalType": "address",
							"name": "reporter",
							"type": "address"
						},
						{
							"indexed": true,
							"internalType": "address",
							"name": "reportedNode",
							"type": "address"
						},
						{
							"indexed": false,
							"internalType": "uint256",
							"name": "totalReports",
							"type": "uint256"
						}
					],
					"name": "NodeReported",
					"type": "event"
				},
				{
					"anonymous": false,
					"inputs": [
						{
							"indexed": true,
							"internalType": "address",
							"name": "previousOwner",
							"type": "address"
						},
						{
							"indexed": true,
							"internalType": "address",
							"name": "newOwner",
							"type": "address"
						}
					],
					"name": "OwnershipTransferred",
					"type": "event"
				},
				{
					"anonymous": false,
					"inputs": [
						{
							"indexed": false,
							"internalType": "uint256",
							"name": "newThresholdPercent",
							"type": "uint256"
						}
					],
					"name": "QuorumThresholdUpdated",
					"type": "event"
				},
				{
					"inputs": [],
					"name": "nodeStorage",
					"outputs": [
						{
							"internalType": "contract INodesStorage",
							"name": "",
							"type": "address"
						}
					],
					"stateMutability": "view",
					"type": "function"
				},
				{
					"inputs": [],
					"name": "owner",
					"outputs": [
						{
							"internalType": "address",
							"name": "",
							"type": "address"
						}
					],
					"stateMutability": "view",
					"type": "function"
				},
				{
					"inputs": [],
					"name": "quorumThresholdPercent",
					"outputs": [
						{
							"internalType": "uint256",
							"name": "",
							"type": "uint256"
						}
					],
					"stateMutability": "view",
					"type": "function"
				},
				{
					"inputs": [],
					"name": "renounceOwnership",
					"outputs": [],
					"stateMutability": "nonpayable",
					"type": "function"
				},
				{
					"inputs": [
						{
							"internalType": "address",
							"name": "",
							"type": "address"
						},
						{
							"internalType": "address",
							"name": "",
							"type": "address"
						}
					],
					"name": "reportLogs",
					"outputs": [
						{
							"internalType": "bool",
							"name": "",
							"type": "bool"
						}
					],
					"stateMutability": "view",
					"type": "function"
				},
				{
					"inputs": [
						{
							"internalType": "address",
							"name": "nodeAddress",
							"type": "address"
						}
					],
					"name": "reportNode",
					"outputs": [],
					"stateMutability": "nonpayable",
					"type": "function"
				},
				{
					"inputs": [
						{
							"internalType": "address",
							"name": "",
							"type": "address"
						}
					],
					"name": "reportedNodes",
					"outputs": [
						{
							"internalType": "uint256",
							"name": "",
							"type": "uint256"
						}
					],
					"stateMutability": "view",
					"type": "function"
				},
				{
					"inputs": [
						{
							"internalType": "address",
							"name": "newOwner",
							"type": "address"
						}
					],
					"name": "transferOwnership",
					"outputs": [],
					"stateMutability": "nonpayable",
					"type": "function"
				},
				{
					"inputs": [
						{
							"internalType": "address",
							"name": "newNodeStorage",
							"type": "address"
						}
					],
					"name": "updateNodeStorage",
					"outputs": [],
					"stateMutability": "nonpayable",
					"type": "function"
				},
				{
					"inputs": [
						{
							"internalType": "uint256",
							"name": "newPercent",
							"type": "uint256"
						}
					],
					"name": "updateQuorumThreshold",
					"outputs": [],
					"stateMutability": "nonpayable",
					"type": "function"
				}
			],
			"devdoc": {
				"kind": "dev",
				"methods": {
					"owner()": {
						"details": "Returns the address of the current owner."
					},
					"renounceOwnership()": {
						"details": "Leaves the contract without owner. It will not be possible to call `onlyOwner` functions. Can only be called by the current owner. NOTE: Renouncing ownership will leave the contract without an owner, thereby disabling any functionality that is only available to the owner."
					},
					"transferOwnership(address)": {
						"details": "Transfers ownership of the contract to a new account (`newOwner`). Can only be called by the current owner."
					}
				},
				"version": 1
			},
			"evm": {
				"assembly": "    /* \"contracts/Voting.sol\":166:2408  contract Voting is Ownable {... */\n  mstore(0x40, 0x80)\n    /* \"contracts/Voting.sol\":653:1056  constructor(address _nodeStorageAddress, uint256 _initialQuorumPercent) {... */\n  callvalue\n  dup1\n  iszero\n  tag_1\n  jumpi\n  0x00\n  dup1\n  revert\ntag_1:\n  pop\n  mload(0x40)\n  sub(codesize, bytecodeSize)\n  dup1\n  bytecodeSize\n  dup4\n  codecopy\n  dup2\n  dup2\n  add\n  0x40\n  mstore\n  dup2\n  add\n  swap1\n  tag_2\n  swap2\n  swap1\n  tag_3\n  jump\t// in\ntag_2:\n    /* \"@openzeppelin/contracts@4.9.6/access/Ownable.sol\":936:968  _transferOwnership(_msgSender()) */\n  tag_7\n    /* \"@openzeppelin/contracts@4.9.6/access/Ownable.sol\":955:967  _msgSender() */\n  tag_8\n    /* \"@openzeppelin/contracts@4.9.6/access/Ownable.sol\":955:965  _msgSender */\n  shl(0x20, tag_9)\n    /* \"@openzeppelin/contracts@4.9.6/access/Ownable.sol\":955:967  _msgSender() */\n  0x20\n  shr\n  jump\t// in\ntag_8:\n    /* \"@openzeppelin/contracts@4.9.6/access/Ownable.sol\":936:954  _transferOwnership */\n  shl(0x20, tag_10)\n    /* \"@openzeppelin/contracts@4.9.6/access/Ownable.sol\":936:968  _transferOwnership(_msgSender()) */\n  0x20\n  shr\n  jump\t// in\ntag_7:\n    /* \"contracts/Voting.sol\":774:775  0 */\n  0x00\n    /* \"contracts/Voting.sol\":743:776  _nodeStorageAddress != address(0) */\n  0xffffffffffffffffffffffffffffffffffffffff\n  and\n    /* \"contracts/Voting.sol\":743:762  _nodeStorageAddress */\n  dup3\n    /* \"contracts/Voting.sol\":743:776  _nodeStorageAddress != address(0) */\n  0xffffffffffffffffffffffffffffffffffffffff\n  and\n  sub\n    /* \"contracts/Voting.sol\":735:804  require(_nodeStorageAddress != address(0), \"Invalid storage address\") */\n  tag_12\n  jumpi\n  mload(0x40)\n  0x08c379a000000000000000000000000000000000000000000000000000000000\n  dup2\n  mstore\n  0x04\n  add\n  tag_13\n  swap1\n  tag_14\n  jump\t// in\ntag_13:\n  mload(0x40)\n  dup1\n  swap2\n  sub\n  swap1\n  revert\ntag_12:\n    /* \"contracts/Voting.sol\":859:860  0 */\n  0x00\n    /* \"contracts/Voting.sol\":835:856  _initialQuorumPercent */\n  dup2\n    /* \"contracts/Voting.sol\":835:860  _initialQuorumPercent > 0 */\n  gt\n    /* \"contracts/Voting.sol\":835:892  _initialQuorumPercent > 0 && _initialQuorumPercent <= 100 */\n  dup1\n  iszero\n  tag_15\n  jumpi\n  pop\n    /* \"contracts/Voting.sol\":889:892  100 */\n  0x64\n    /* \"contracts/Voting.sol\":864:885  _initialQuorumPercent */\n  dup2\n    /* \"contracts/Voting.sol\":864:892  _initialQuorumPercent <= 100 */\n  gt\n  iszero\n    /* \"contracts/Voting.sol\":835:892  _initialQuorumPercent > 0 && _initialQuorumPercent <= 100 */\ntag_15:\n    /* \"contracts/Voting.sol\":814:934  require(... */\n  tag_16\n  jumpi\n  mload(0x40)\n  0x08c379a000000000000000000000000000000000000000000000000000000000\n  dup2\n  mstore\n  0x04\n  add\n  tag_17\n  swap1\n  tag_18\n  jump\t// in\ntag_17:\n  mload(0x40)\n  dup1\n  swap2\n  sub\n  swap1\n  revert\ntag_16:\n    /* \"contracts/Voting.sol\":973:992  _nodeStorageAddress */\n  dup2\n    /* \"contracts/Voting.sol\":945:956  nodeStorage */\n  0x01\n  0x00\n    /* \"contracts/Voting.sol\":945:993  nodeStorage = INodesStorage(_nodeStorageAddress) */\n  0x0100\n  exp\n  dup2\n  sload\n  dup2\n  0xffffffffffffffffffffffffffffffffffffffff\n  mul\n  not\n  and\n  swap1\n  dup4\n  0xffffffffffffffffffffffffffffffffffffffff\n  and\n  mul\n  or\n  swap1\n  sstore\n  pop\n    /* \"contracts/Voting.sol\":1028:1049  _initialQuorumPercent */\n  dup1\n    /* \"contracts/Voting.sol\":1003:1025  quorumThresholdPercent */\n  0x02\n    /* \"contracts/Voting.sol\":1003:1049  quorumThresholdPercent = _initialQuorumPercent */\n  dup2\n  swap1\n  sstore\n  pop\n    /* \"contracts/Voting.sol\":653:1056  constructor(address _nodeStorageAddress, uint256 _initialQuorumPercent) {... */\n  pop\n  pop\n    /* \"contracts/Voting.sol\":166:2408  contract Voting is Ownable {... */\n  jump(tag_19)\n    /* \"@openzeppelin/contracts@4.9.6/utils/Context.sol\":655:751  function _msgSender() internal view virtual returns (address) {... */\ntag_9:\n    /* \"@openzeppelin/contracts@4.9.6/utils/Context.sol\":708:715  address */\n  0x00\n    /* \"@openzeppelin/contracts@4.9.6/utils/Context.sol\":734:744  msg.sender */\n  caller\n    /* \"@openzeppelin/contracts@4.9.6/utils/Context.sol\":727:744  return msg.sender */\n  swap1\n  pop\n    /* \"@openzeppelin/contracts@4.9.6/utils/Context.sol\":655:751  function _msgSender() internal view virtual returns (address) {... */\n  swap1\n  jump\t// out\n    /* \"@openzeppelin/contracts@4.9.6/access/Ownable.sol\":2426:2613  function _transferOwnership(address newOwner) internal virtual {... */\ntag_10:\n    /* \"@openzeppelin/contracts@4.9.6/access/Ownable.sol\":2499:2515  address oldOwner */\n  0x00\n    /* \"@openzeppelin/contracts@4.9.6/access/Ownable.sol\":2518:2524  _owner */\n  dup1\n  0x00\n  swap1\n  sload\n  swap1\n  0x0100\n  exp\n  swap1\n  div\n  0xffffffffffffffffffffffffffffffffffffffff\n  and\n    /* \"@openzeppelin/contracts@4.9.6/access/Ownable.sol\":2499:2524  address oldOwner = _owner */\n  swap1\n  pop\n    /* \"@openzeppelin/contracts@4.9.6/access/Ownable.sol\":2543:2551  newOwner */\n  dup2\n    /* \"@openzeppelin/contracts@4.9.6/access/Ownable.sol\":2534:2540  _owner */\n  0x00\n  dup1\n    /* \"@openzeppelin/contracts@4.9.6/access/Ownable.sol\":2534:2551  _owner = newOwner */\n  0x0100\n  exp\n  dup2\n  sload\n  dup2\n  0xffffffffffffffffffffffffffffffffffffffff\n  mul\n  not\n  and\n  swap1\n  dup4\n  0xffffffffffffffffffffffffffffffffffffffff\n  and\n  mul\n  or\n  swap1\n  sstore\n  pop\n    /* \"@openzeppelin/contracts@4.9.6/access/Ownable.sol\":2597:2605  newOwner */\n  dup2\n    /* \"@openzeppelin/contracts@4.9.6/access/Ownable.sol\":2566:2606  OwnershipTransferred(oldOwner, newOwner) */\n  0xffffffffffffffffffffffffffffffffffffffff\n  and\n    /* \"@openzeppelin/contracts@4.9.6/access/Ownable.sol\":2587:2595  oldOwner */\n  dup2\n    /* \"@openzeppelin/contracts@4.9.6/access/Ownable.sol\":2566:2606  OwnershipTransferred(oldOwner, newOwner) */\n  0xffffffffffffffffffffffffffffffffffffffff\n  and\n  0x8be0079c531659141344cd1fd0a4f28419497f9722a3daafe3b4186f6b6457e0\n  mload(0x40)\n  mload(0x40)\n  dup1\n  swap2\n  sub\n  swap1\n  log3\n    /* \"@openzeppelin/contracts@4.9.6/access/Ownable.sol\":2489:2613  {... */\n  pop\n    /* \"@openzeppelin/contracts@4.9.6/access/Ownable.sol\":2426:2613  function _transferOwnership(address newOwner) internal virtual {... */\n  pop\n  jump\t// out\n    /* \"#utility.yul\":88:205   */\ntag_23:\n    /* \"#utility.yul\":197:198   */\n  0x00\n    /* \"#utility.yul\":194:195   */\n  dup1\n    /* \"#utility.yul\":187:199   */\n  revert\n    /* \"#utility.yul\":334:460   */\ntag_25:\n    /* \"#utility.yul\":371:378   */\n  0x00\n    /* \"#utility.yul\":411:453   */\n  0xffffffffffffffffffffffffffffffffffffffff\n    /* \"#utility.yul\":404:409   */\n  dup3\n    /* \"#utility.yul\":400:454   */\n  and\n    /* \"#utility.yul\":389:454   */\n  swap1\n  pop\n    /* \"#utility.yul\":334:460   */\n  swap2\n  swap1\n  pop\n  jump\t// out\n    /* \"#utility.yul\":466:562   */\ntag_26:\n    /* \"#utility.yul\":503:510   */\n  0x00\n    /* \"#utility.yul\":532:556   */\n  tag_43\n    /* \"#utility.yul\":550:555   */\n  dup3\n    /* \"#utility.yul\":532:556   */\n  tag_25\n  jump\t// in\ntag_43:\n    /* \"#utility.yul\":521:556   */\n  swap1\n  pop\n    /* \"#utility.yul\":466:562   */\n  swap2\n  swap1\n  pop\n  jump\t// out\n    /* \"#utility.yul\":568:690   */\ntag_27:\n    /* \"#utility.yul\":641:665   */\n  tag_45\n    /* \"#utility.yul\":659:664   */\n  dup2\n    /* \"#utility.yul\":641:665   */\n  tag_26\n  jump\t// in\ntag_45:\n    /* \"#utility.yul\":634:639   */\n  dup2\n    /* \"#utility.yul\":631:666   */\n  eq\n    /* \"#utility.yul\":621:684   */\n  tag_46\n  jumpi\n    /* \"#utility.yul\":680:681   */\n  0x00\n    /* \"#utility.yul\":677:678   */\n  dup1\n    /* \"#utility.yul\":670:682   */\n  revert\n    /* \"#utility.yul\":621:684   */\ntag_46:\n    /* \"#utility.yul\":568:690   */\n  pop\n  jump\t// out\n    /* \"#utility.yul\":696:839   */\ntag_28:\n    /* \"#utility.yul\":753:758   */\n  0x00\n    /* \"#utility.yul\":784:790   */\n  dup2\n    /* \"#utility.yul\":778:791   */\n  mload\n    /* \"#utility.yul\":769:791   */\n  swap1\n  pop\n    /* \"#utility.yul\":800:833   */\n  tag_48\n    /* \"#utility.yul\":827:832   */\n  dup2\n    /* \"#utility.yul\":800:833   */\n  tag_27\n  jump\t// in\ntag_48:\n    /* \"#utility.yul\":696:839   */\n  swap3\n  swap2\n  pop\n  pop\n  jump\t// out\n    /* \"#utility.yul\":845:922   */\ntag_29:\n    /* \"#utility.yul\":882:889   */\n  0x00\n    /* \"#utility.yul\":911:916   */\n  dup2\n    /* \"#utility.yul\":900:916   */\n  swap1\n  pop\n    /* \"#utility.yul\":845:922   */\n  swap2\n  swap1\n  pop\n  jump\t// out\n    /* \"#utility.yul\":928:1050   */\ntag_30:\n    /* \"#utility.yul\":1001:1025   */\n  tag_51\n    /* \"#utility.yul\":1019:1024   */\n  dup2\n    /* \"#utility.yul\":1001:1025   */\n  tag_29\n  jump\t// in\ntag_51:\n    /* \"#utility.yul\":994:999   */\n  dup2\n    /* \"#utility.yul\":991:1026   */\n  eq\n    /* \"#utility.yul\":981:1044   */\n  tag_52\n  jumpi\n    /* \"#utility.yul\":1040:1041   */\n  0x00\n    /* \"#utility.yul\":1037:1038   */\n  dup1\n    /* \"#utility.yul\":1030:1042   */\n  revert\n    /* \"#utility.yul\":981:1044   */\ntag_52:\n    /* \"#utility.yul\":928:1050   */\n  pop\n  jump\t// out\n    /* \"#utility.yul\":1056:1199   */\ntag_31:\n    /* \"#utility.yul\":1113:1118   */\n  0x00\n    /* \"#utility.yul\":1144:1150   */\n  dup2\n    /* \"#utility.yul\":1138:1151   */\n  mload\n    /* \"#utility.yul\":1129:1151   */\n  swap1\n  pop\n    /* \"#utility.yul\":1160:1193   */\n  tag_54\n    /* \"#utility.yul\":1187:1192   */\n  dup2\n    /* \"#utility.yul\":1160:1193   */\n  tag_30\n  jump\t// in\ntag_54:\n    /* \"#utility.yul\":1056:1199   */\n  swap3\n  swap2\n  pop\n  pop\n  jump\t// out\n    /* \"#utility.yul\":1205:1712   */\ntag_3:\n    /* \"#utility.yul\":1284:1290   */\n  0x00\n    /* \"#utility.yul\":1292:1298   */\n  dup1\n    /* \"#utility.yul\":1341:1343   */\n  0x40\n    /* \"#utility.yul\":1329:1338   */\n  dup4\n    /* \"#utility.yul\":1320:1327   */\n  dup6\n    /* \"#utility.yul\":1316:1339   */\n  sub\n    /* \"#utility.yul\":1312:1344   */\n  slt\n    /* \"#utility.yul\":1309:1428   */\n  iszero\n  tag_56\n  jumpi\n    /* \"#utility.yul\":1347:1426   */\n  tag_57\n  tag_23\n  jump\t// in\ntag_57:\n    /* \"#utility.yul\":1309:1428   */\ntag_56:\n    /* \"#utility.yul\":1467:1468   */\n  0x00\n    /* \"#utility.yul\":1492:1556   */\n  tag_58\n    /* \"#utility.yul\":1548:1555   */\n  dup6\n    /* \"#utility.yul\":1539:1545   */\n  dup3\n    /* \"#utility.yul\":1528:1537   */\n  dup7\n    /* \"#utility.yul\":1524:1546   */\n  add\n    /* \"#utility.yul\":1492:1556   */\n  tag_28\n  jump\t// in\ntag_58:\n    /* \"#utility.yul\":1482:1556   */\n  swap3\n  pop\n    /* \"#utility.yul\":1438:1566   */\n  pop\n    /* \"#utility.yul\":1605:1607   */\n  0x20\n    /* \"#utility.yul\":1631:1695   */\n  tag_59\n    /* \"#utility.yul\":1687:1694   */\n  dup6\n    /* \"#utility.yul\":1678:1684   */\n  dup3\n    /* \"#utility.yul\":1667:1676   */\n  dup7\n    /* \"#utility.yul\":1663:1685   */\n  add\n    /* \"#utility.yul\":1631:1695   */\n  tag_31\n  jump\t// in\ntag_59:\n    /* \"#utility.yul\":1621:1695   */\n  swap2\n  pop\n    /* \"#utility.yul\":1576:1705   */\n  pop\n    /* \"#utility.yul\":1205:1712   */\n  swap3\n  pop\n  swap3\n  swap1\n  pop\n  jump\t// out\n    /* \"#utility.yul\":1718:1887   */\ntag_32:\n    /* \"#utility.yul\":1802:1813   */\n  0x00\n    /* \"#utility.yul\":1836:1842   */\n  dup3\n    /* \"#utility.yul\":1831:1834   */\n  dup3\n    /* \"#utility.yul\":1824:1843   */\n  mstore\n    /* \"#utility.yul\":1876:1880   */\n  0x20\n    /* \"#utility.yul\":1871:1874   */\n  dup3\n    /* \"#utility.yul\":1867:1881   */\n  add\n    /* \"#utility.yul\":1852:1881   */\n  swap1\n  pop\n    /* \"#utility.yul\":1718:1887   */\n  swap3\n  swap2\n  pop\n  pop\n  jump\t// out\n    /* \"#utility.yul\":1893:2066   */\ntag_33:\n    /* \"#utility.yul\":2033:2058   */\n  0x496e76616c69642073746f726167652061646472657373000000000000000000\n    /* \"#utility.yul\":2029:2030   */\n  0x00\n    /* \"#utility.yul\":2021:2027   */\n  dup3\n    /* \"#utility.yul\":2017:2031   */\n  add\n    /* \"#utility.yul\":2010:2059   */\n  mstore\n    /* \"#utility.yul\":1893:2066   */\n  pop\n  jump\t// out\n    /* \"#utility.yul\":2072:2438   */\ntag_34:\n    /* \"#utility.yul\":2214:2217   */\n  0x00\n    /* \"#utility.yul\":2235:2302   */\n  tag_63\n    /* \"#utility.yul\":2299:2301   */\n  0x17\n    /* \"#utility.yul\":2294:2297   */\n  dup4\n    /* \"#utility.yul\":2235:2302   */\n  tag_32\n  jump\t// in\ntag_63:\n    /* \"#utility.yul\":2228:2302   */\n  swap2\n  pop\n    /* \"#utility.yul\":2311:2404   */\n  tag_64\n    /* \"#utility.yul\":2400:2403   */\n  dup3\n    /* \"#utility.yul\":2311:2404   */\n  tag_33\n  jump\t// in\ntag_64:\n    /* \"#utility.yul\":2429:2431   */\n  0x20\n    /* \"#utility.yul\":2424:2427   */\n  dup3\n    /* \"#utility.yul\":2420:2432   */\n  add\n    /* \"#utility.yul\":2413:2432   */\n  swap1\n  pop\n    /* \"#utility.yul\":2072:2438   */\n  swap2\n  swap1\n  pop\n  jump\t// out\n    /* \"#utility.yul\":2444:2863   */\ntag_14:\n    /* \"#utility.yul\":2610:2614   */\n  0x00\n    /* \"#utility.yul\":2648:2650   */\n  0x20\n    /* \"#utility.yul\":2637:2646   */\n  dup3\n    /* \"#utility.yul\":2633:2651   */\n  add\n    /* \"#utility.yul\":2625:2651   */\n  swap1\n  pop\n    /* \"#utility.yul\":2697:2706   */\n  dup2\n    /* \"#utility.yul\":2691:2695   */\n  dup2\n    /* \"#utility.yul\":2687:2707   */\n  sub\n    /* \"#utility.yul\":2683:2684   */\n  0x00\n    /* \"#utility.yul\":2672:2681   */\n  dup4\n    /* \"#utility.yul\":2668:2685   */\n  add\n    /* \"#utility.yul\":2661:2708   */\n  mstore\n    /* \"#utility.yul\":2725:2856   */\n  tag_66\n    /* \"#utility.yul\":2851:2855   */\n  dup2\n    /* \"#utility.yul\":2725:2856   */\n  tag_34\n  jump\t// in\ntag_66:\n    /* \"#utility.yul\":2717:2856   */\n  swap1\n  pop\n    /* \"#utility.yul\":2444:2863   */\n  swap2\n  swap1\n  pop\n  jump\t// out\n    /* \"#utility.yul\":2869:3035   */\ntag_35:\n    /* \"#utility.yul\":3009:3027   */\n  0x496e76616c69642071756f72756d202500000000000000000000000000000000\n    /* \"#utility.yul\":3005:3006   */\n  0x00\n    /* \"#utility.yul\":2997:3003   */\n  dup3\n    /* \"#utility.yul\":2993:3007   */\n  add\n    /* \"#utility.yul\":2986:3028   */\n  mstore\n    /* \"#utility.yul\":2869:3035   */\n  pop\n  jump\t// out\n    /* \"#utility.yul\":3041:3407   */\ntag_36:\n    /* \"#utility.yul\":3183:3186   */\n  0x00\n    /* \"#utility.yul\":3204:3271   */\n  tag_69\n    /* \"#utility.yul\":3268:3270   */\n  0x10\n    /* \"#utility.yul\":3263:3266   */\n  dup4\n    /* \"#utility.yul\":3204:3271   */\n  tag_32\n  jump\t// in\ntag_69:\n    /* \"#utility.yul\":3197:3271   */\n  swap2\n  pop\n    /* \"#utility.yul\":3280:3373   */\n  tag_70\n    /* \"#utility.yul\":3369:3372   */\n  dup3\n    /* \"#utility.yul\":3280:3373   */\n  tag_35\n  jump\t// in\ntag_70:\n    /* \"#utility.yul\":3398:3400   */\n  0x20\n    /* \"#utility.yul\":3393:3396   */\n  dup3\n    /* \"#utility.yul\":3389:3401   */\n  add\n    /* \"#utility.yul\":3382:3401   */\n  swap1\n  pop\n    /* \"#utility.yul\":3041:3407   */\n  swap2\n  swap1\n  pop\n  jump\t// out\n    /* \"#utility.yul\":3413:3832   */\ntag_18:\n    /* \"#utility.yul\":3579:3583   */\n  0x00\n    /* \"#utility.yul\":3617:3619   */\n  0x20\n    /* \"#utility.yul\":3606:3615   */\n  dup3\n    /* \"#utility.yul\":3602:3620   */\n  add\n    /* \"#utility.yul\":3594:3620   */\n  swap1\n  pop\n    /* \"#utility.yul\":3666:3675   */\n  dup2\n    /* \"#utility.yul\":3660:3664   */\n  dup2\n    /* \"#utility.yul\":3656:3676   */\n  sub\n    /* \"#utility.yul\":3652:3653   */\n  0x00\n    /* \"#utility.yul\":3641:3650   */\n  dup4\n    /* \"#utility.yul\":3637:3654   */\n  add\n    /* \"#utility.yul\":3630:3677   */\n  mstore\n    /* \"#utility.yul\":3694:3825   */\n  tag_72\n    /* \"#utility.yul\":3820:3824   */\n  dup2\n    /* \"#utility.yul\":3694:3825   */\n  tag_36\n  jump\t// in\ntag_72:\n    /* \"#utility.yul\":3686:3825   */\n  swap1\n  pop\n    /* \"#utility.yul\":3413:3832   */\n  swap2\n  swap1\n  pop\n  jump\t// out\n    /* \"contracts/Voting.sol\":166:2408  contract Voting is Ownable {... */\ntag_19:\n  dataSize(sub_0)\n  dup1\n  dataOffset(sub_0)\n  0x00\n  codecopy\n  0x00\n  return\nstop\n\nsub_0: assembly {\n        /* \"contracts/Voting.sol\":166:2408  contract Voting is Ownable {... */\n      mstore(0x40, 0x80)\n      callvalue\n      dup1\n      iszero\n      tag_1\n      jumpi\n      0x00\n      dup1\n      revert\n    tag_1:\n      pop\n      jumpi(tag_2, lt(calldatasize, 0x04))\n      shr(0xe0, calldataload(0x00))\n      dup1\n      0x715018a6\n      gt\n      tag_13\n      jumpi\n      dup1\n      0x715018a6\n      eq\n      tag_8\n      jumpi\n      dup1\n      0x8da5cb5b\n      eq\n      tag_9\n      jumpi\n      dup1\n      0xc3f37225\n      eq\n      tag_10\n      jumpi\n      dup1\n      0xf2fde38b\n      eq\n      tag_11\n      jumpi\n      dup1\n      0xf36a6c02\n      eq\n      tag_12\n      jumpi\n      jump(tag_2)\n    tag_13:\n      dup1\n      0x1b14ca9b\n      eq\n      tag_3\n      jumpi\n      dup1\n      0x210a5e87\n      eq\n      tag_4\n      jumpi\n      dup1\n      0x30034df1\n      eq\n      tag_5\n      jumpi\n      dup1\n      0x3384d47d\n      eq\n      tag_6\n      jumpi\n      dup1\n      0x648a3a92\n      eq\n      tag_7\n      jumpi\n    tag_2:\n      0x00\n      dup1\n      revert\n        /* \"contracts/Voting.sol\":199:231  INodesStorage public nodeStorage */\n    tag_3:\n      tag_14\n      tag_15\n      jump\t// in\n    tag_14:\n      mload(0x40)\n      tag_16\n      swap2\n      swap1\n      tag_17\n      jump\t// in\n    tag_16:\n      mload(0x40)\n      dup1\n      swap2\n      sub\n      swap1\n      return\n        /* \"contracts/Voting.sol\":1952:2204  function updateQuorumThreshold(uint256 newPercent) external onlyOwner {... */\n    tag_4:\n      tag_18\n      0x04\n      dup1\n      calldatasize\n      sub\n      dup2\n      add\n      swap1\n      tag_19\n      swap2\n      swap1\n      tag_20\n      jump\t// in\n    tag_19:\n      tag_21\n      jump\t// in\n    tag_18:\n      stop\n        /* \"contracts/Voting.sol\":1180:1946  function reportNode(address nodeAddress) external onlyNode {... */\n    tag_5:\n      tag_22\n      0x04\n      dup1\n      calldatasize\n      sub\n      dup2\n      add\n      swap1\n      tag_23\n      swap2\n      swap1\n      tag_24\n      jump\t// in\n    tag_23:\n      tag_25\n      jump\t// in\n    tag_22:\n      stop\n        /* \"contracts/Voting.sol\":238:275  uint256 public quorumThresholdPercent */\n    tag_6:\n      tag_26\n      tag_27\n      jump\t// in\n    tag_26:\n      mload(0x40)\n      tag_28\n      swap2\n      swap1\n      tag_29\n      jump\t// in\n    tag_28:\n      mload(0x40)\n      dup1\n      swap2\n      sub\n      swap1\n      return\n        /* \"contracts/Voting.sol\":336:398  mapping(address => mapping(address => bool)) public reportLogs */\n    tag_7:\n      tag_30\n      0x04\n      dup1\n      calldatasize\n      sub\n      dup2\n      add\n      swap1\n      tag_31\n      swap2\n      swap1\n      tag_32\n      jump\t// in\n    tag_31:\n      tag_33\n      jump\t// in\n    tag_30:\n      mload(0x40)\n      tag_34\n      swap2\n      swap1\n      tag_35\n      jump\t// in\n    tag_34:\n      mload(0x40)\n      dup1\n      swap2\n      sub\n      swap1\n      return\n        /* \"@openzeppelin/contracts@4.9.6/access/Ownable.sol\":1824:1925  function renounceOwnership() public virtual onlyOwner {... */\n    tag_8:\n      tag_36\n      tag_37\n      jump\t// in\n    tag_36:\n      stop\n        /* \"@openzeppelin/contracts@4.9.6/access/Ownable.sol\":1201:1286  function owner() public view virtual returns (address) {... */\n    tag_9:\n      tag_38\n      tag_39\n      jump\t// in\n    tag_38:\n      mload(0x40)\n      tag_40\n      swap2\n      swap1\n      tag_41\n      jump\t// in\n    tag_40:\n      mload(0x40)\n      dup1\n      swap2\n      sub\n      swap1\n      return\n        /* \"contracts/Voting.sol\":282:330  mapping(address => uint256) public reportedNodes */\n    tag_10:\n      tag_42\n      0x04\n      dup1\n      calldatasize\n      sub\n      dup2\n      add\n      swap1\n      tag_43\n      swap2\n      swap1\n      tag_24\n      jump\t// in\n    tag_43:\n      tag_44\n      jump\t// in\n    tag_42:\n      mload(0x40)\n      tag_45\n      swap2\n      swap1\n      tag_29\n      jump\t// in\n    tag_45:\n      mload(0x40)\n      dup1\n      swap2\n      sub\n      swap1\n      return\n        /* \"@openzeppelin/contracts@4.9.6/access/Ownable.sol\":2074:2272  function transferOwnership(address newOwner) public virtual onlyOwner {... */\n    tag_11:\n      tag_46\n      0x04\n      dup1\n      calldatasize\n      sub\n      dup2\n      add\n      swap1\n      tag_47\n      swap2\n      swap1\n      tag_24\n      jump\t// in\n    tag_47:\n      tag_48\n      jump\t// in\n    tag_46:\n      stop\n        /* \"contracts/Voting.sol\":2210:2406  function updateNodeStorage(address newNodeStorage) external onlyOwner {... */\n    tag_12:\n      tag_49\n      0x04\n      dup1\n      calldatasize\n      sub\n      dup2\n      add\n      swap1\n      tag_50\n      swap2\n      swap1\n      tag_24\n      jump\t// in\n    tag_50:\n      tag_51\n      jump\t// in\n    tag_49:\n      stop\n        /* \"contracts/Voting.sol\":199:231  INodesStorage public nodeStorage */\n    tag_15:\n      0x01\n      0x00\n      swap1\n      sload\n      swap1\n      0x0100\n      exp\n      swap1\n      div\n      0xffffffffffffffffffffffffffffffffffffffff\n      and\n      dup2\n      jump\t// out\n        /* \"contracts/Voting.sol\":1952:2204  function updateQuorumThreshold(uint256 newPercent) external onlyOwner {... */\n    tag_21:\n        /* \"@openzeppelin/contracts@4.9.6/access/Ownable.sol\":1094:1107  _checkOwner() */\n      tag_53\n        /* \"@openzeppelin/contracts@4.9.6/access/Ownable.sol\":1094:1105  _checkOwner */\n      tag_54\n        /* \"@openzeppelin/contracts@4.9.6/access/Ownable.sol\":1094:1107  _checkOwner() */\n      jump\t// in\n    tag_53:\n        /* \"contracts/Voting.sol\":2053:2054  0 */\n      0x00\n        /* \"contracts/Voting.sol\":2040:2050  newPercent */\n      dup2\n        /* \"contracts/Voting.sol\":2040:2054  newPercent > 0 */\n      gt\n        /* \"contracts/Voting.sol\":2040:2075  newPercent > 0 && newPercent <= 100 */\n      dup1\n      iszero\n      tag_56\n      jumpi\n      pop\n        /* \"contracts/Voting.sol\":2072:2075  100 */\n      0x64\n        /* \"contracts/Voting.sol\":2058:2068  newPercent */\n      dup2\n        /* \"contracts/Voting.sol\":2058:2075  newPercent <= 100 */\n      gt\n      iszero\n        /* \"contracts/Voting.sol\":2040:2075  newPercent > 0 && newPercent <= 100 */\n    tag_56:\n        /* \"contracts/Voting.sol\":2032:2102  require(newPercent > 0 && newPercent <= 100, \"Invalid quorum percent\") */\n      tag_57\n      jumpi\n      mload(0x40)\n      0x08c379a000000000000000000000000000000000000000000000000000000000\n      dup2\n      mstore\n      0x04\n      add\n      tag_58\n      swap1\n      tag_59\n      jump\t// in\n    tag_58:\n      mload(0x40)\n      dup1\n      swap2\n      sub\n      swap1\n      revert\n    tag_57:\n        /* \"contracts/Voting.sol\":2137:2147  newPercent */\n      dup1\n        /* \"contracts/Voting.sol\":2112:2134  quorumThresholdPercent */\n      0x02\n        /* \"contracts/Voting.sol\":2112:2147  quorumThresholdPercent = newPercent */\n      dup2\n      swap1\n      sstore\n      pop\n        /* \"contracts/Voting.sol\":2163:2197  QuorumThresholdUpdated(newPercent) */\n      0xbc589fccf641d342b7853c2c6faca39631d4d19efbe77e71e5611e31678c220e\n        /* \"contracts/Voting.sol\":2186:2196  newPercent */\n      dup2\n        /* \"contracts/Voting.sol\":2163:2197  QuorumThresholdUpdated(newPercent) */\n      mload(0x40)\n      tag_60\n      swap2\n      swap1\n      tag_29\n      jump\t// in\n    tag_60:\n      mload(0x40)\n      dup1\n      swap2\n      sub\n      swap1\n      log1\n        /* \"contracts/Voting.sol\":1952:2204  function updateQuorumThreshold(uint256 newPercent) external onlyOwner {... */\n      pop\n      jump\t// out\n        /* \"contracts/Voting.sol\":1180:1946  function reportNode(address nodeAddress) external onlyNode {... */\n    tag_25:\n        /* \"contracts/Voting.sol\":1100:1111  nodeStorage */\n      0x01\n      0x00\n      swap1\n      sload\n      swap1\n      0x0100\n      exp\n      swap1\n      div\n      0xffffffffffffffffffffffffffffffffffffffff\n      and\n        /* \"contracts/Voting.sol\":1100:1123  nodeStorage.isValidNode */\n      0xffffffffffffffffffffffffffffffffffffffff\n      and\n      0x9ebd11ef\n        /* \"contracts/Voting.sol\":1124:1134  msg.sender */\n      caller\n        /* \"contracts/Voting.sol\":1100:1135  nodeStorage.isValidNode(msg.sender) */\n      mload(0x40)\n      dup3\n      0xffffffff\n      and\n      0xe0\n      shl\n      dup2\n      mstore\n      0x04\n      add\n      tag_62\n      swap2\n      swap1\n      tag_41\n      jump\t// in\n    tag_62:\n      0x20\n      mload(0x40)\n      dup1\n      dup4\n      sub\n      dup2\n      dup7\n      gas\n      staticcall\n      iszero\n      dup1\n      iszero\n      tag_64\n      jumpi\n      returndatasize\n      0x00\n      dup1\n      returndatacopy\n      revert(0x00, returndatasize)\n    tag_64:\n      pop\n      pop\n      pop\n      pop\n      mload(0x40)\n      returndatasize\n      not(0x1f)\n      0x1f\n      dup3\n      add\n      and\n      dup3\n      add\n      dup1\n      0x40\n      mstore\n      pop\n      dup2\n      add\n      swap1\n      tag_65\n      swap2\n      swap1\n      tag_66\n      jump\t// in\n    tag_65:\n        /* \"contracts/Voting.sol\":1092:1156  require(nodeStorage.isValidNode(msg.sender), \"Not a valid node\") */\n      tag_67\n      jumpi\n      mload(0x40)\n      0x08c379a000000000000000000000000000000000000000000000000000000000\n      dup2\n      mstore\n      0x04\n      add\n      tag_68\n      swap1\n      tag_69\n      jump\t// in\n    tag_68:\n      mload(0x40)\n      dup1\n      swap2\n      sub\n      swap1\n      revert\n    tag_67:\n        /* \"contracts/Voting.sol\":1270:1281  nodeStorage */\n      0x01\n      0x00\n      swap1\n      sload\n      swap1\n      0x0100\n      exp\n      swap1\n      div\n      0xffffffffffffffffffffffffffffffffffffffff\n      and\n        /* \"contracts/Voting.sol\":1270:1293  nodeStorage.isValidNode */\n      0xffffffffffffffffffffffffffffffffffffffff\n      and\n      0x9ebd11ef\n        /* \"contracts/Voting.sol\":1294:1305  nodeAddress */\n      dup3\n        /* \"contracts/Voting.sol\":1270:1306  nodeStorage.isValidNode(nodeAddress) */\n      mload(0x40)\n      dup3\n      0xffffffff\n      and\n      0xe0\n      shl\n      dup2\n      mstore\n      0x04\n      add\n      tag_71\n      swap2\n      swap1\n      tag_41\n      jump\t// in\n    tag_71:\n      0x20\n      mload(0x40)\n      dup1\n      dup4\n      sub\n      dup2\n      dup7\n      gas\n      staticcall\n      iszero\n      dup1\n      iszero\n      tag_73\n      jumpi\n      returndatasize\n      0x00\n      dup1\n      returndatacopy\n      revert(0x00, returndatasize)\n    tag_73:\n      pop\n      pop\n      pop\n      pop\n      mload(0x40)\n      returndatasize\n      not(0x1f)\n      0x1f\n      dup3\n      add\n      and\n      dup3\n      add\n      dup1\n      0x40\n      mstore\n      pop\n      dup2\n      add\n      swap1\n      tag_74\n      swap2\n      swap1\n      tag_66\n      jump\t// in\n    tag_74:\n        /* \"contracts/Voting.sol\":1249:1358  require(... */\n      tag_75\n      jumpi\n      mload(0x40)\n      0x08c379a000000000000000000000000000000000000000000000000000000000\n      dup2\n      mstore\n      0x04\n      add\n      tag_76\n      swap1\n      tag_77\n      jump\t// in\n    tag_76:\n      mload(0x40)\n      dup1\n      swap2\n      sub\n      swap1\n      revert\n    tag_75:\n        /* \"contracts/Voting.sol\":1377:1387  reportLogs */\n      0x04\n        /* \"contracts/Voting.sol\":1377:1399  reportLogs[msg.sender] */\n      0x00\n        /* \"contracts/Voting.sol\":1388:1398  msg.sender */\n      caller\n        /* \"contracts/Voting.sol\":1377:1399  reportLogs[msg.sender] */\n      0xffffffffffffffffffffffffffffffffffffffff\n      and\n      0xffffffffffffffffffffffffffffffffffffffff\n      and\n      dup2\n      mstore\n      0x20\n      add\n      swap1\n      dup2\n      mstore\n      0x20\n      add\n      0x00\n      keccak256\n        /* \"contracts/Voting.sol\":1377:1412  reportLogs[msg.sender][nodeAddress] */\n      0x00\n        /* \"contracts/Voting.sol\":1400:1411  nodeAddress */\n      dup3\n        /* \"contracts/Voting.sol\":1377:1412  reportLogs[msg.sender][nodeAddress] */\n      0xffffffffffffffffffffffffffffffffffffffff\n      and\n      0xffffffffffffffffffffffffffffffffffffffff\n      and\n      dup2\n      mstore\n      0x20\n      add\n      swap1\n      dup2\n      mstore\n      0x20\n      add\n      0x00\n      keccak256\n      0x00\n      swap1\n      sload\n      swap1\n      0x0100\n      exp\n      swap1\n      div\n      0xff\n      and\n        /* \"contracts/Voting.sol\":1376:1412  !reportLogs[msg.sender][nodeAddress] */\n      iszero\n        /* \"contracts/Voting.sol\":1368:1438  require(!reportLogs[msg.sender][nodeAddress], \"Node already reported\") */\n      tag_78\n      jumpi\n      mload(0x40)\n      0x08c379a000000000000000000000000000000000000000000000000000000000\n      dup2\n      mstore\n      0x04\n      add\n      tag_79\n      swap1\n      tag_80\n      jump\t// in\n    tag_79:\n      mload(0x40)\n      dup1\n      swap2\n      sub\n      swap1\n      revert\n    tag_78:\n        /* \"contracts/Voting.sol\":1487:1491  true */\n      0x01\n        /* \"contracts/Voting.sol\":1449:1459  reportLogs */\n      0x04\n        /* \"contracts/Voting.sol\":1449:1471  reportLogs[msg.sender] */\n      0x00\n        /* \"contracts/Voting.sol\":1460:1470  msg.sender */\n      caller\n        /* \"contracts/Voting.sol\":1449:1471  reportLogs[msg.sender] */\n      0xffffffffffffffffffffffffffffffffffffffff\n      and\n      0xffffffffffffffffffffffffffffffffffffffff\n      and\n      dup2\n      mstore\n      0x20\n      add\n      swap1\n      dup2\n      mstore\n      0x20\n      add\n      0x00\n      keccak256\n        /* \"contracts/Voting.sol\":1449:1484  reportLogs[msg.sender][nodeAddress] */\n      0x00\n        /* \"contracts/Voting.sol\":1472:1483  nodeAddress */\n      dup4\n        /* \"contracts/Voting.sol\":1449:1484  reportLogs[msg.sender][nodeAddress] */\n      0xffffffffffffffffffffffffffffffffffffffff\n      and\n      0xffffffffffffffffffffffffffffffffffffffff\n      and\n      dup2\n      mstore\n      0x20\n      add\n      swap1\n      dup2\n      mstore\n      0x20\n      add\n      0x00\n      keccak256\n      0x00\n        /* \"contracts/Voting.sol\":1449:1491  reportLogs[msg.sender][nodeAddress] = true */\n      0x0100\n      exp\n      dup2\n      sload\n      dup2\n      0xff\n      mul\n      not\n      and\n      swap1\n      dup4\n      iszero\n      iszero\n      mul\n      or\n      swap1\n      sstore\n      pop\n        /* \"contracts/Voting.sol\":1531:1532  1 */\n      0x01\n        /* \"contracts/Voting.sol\":1501:1514  reportedNodes */\n      0x03\n        /* \"contracts/Voting.sol\":1501:1527  reportedNodes[nodeAddress] */\n      0x00\n        /* \"contracts/Voting.sol\":1515:1526  nodeAddress */\n      dup4\n        /* \"contracts/Voting.sol\":1501:1527  reportedNodes[nodeAddress] */\n      0xffffffffffffffffffffffffffffffffffffffff\n      and\n      0xffffffffffffffffffffffffffffffffffffffff\n      and\n      dup2\n      mstore\n      0x20\n      add\n      swap1\n      dup2\n      mstore\n      0x20\n      add\n      0x00\n      keccak256\n      0x00\n        /* \"contracts/Voting.sol\":1501:1532  reportedNodes[nodeAddress] += 1 */\n      dup3\n      dup3\n      sload\n      tag_81\n      swap2\n      swap1\n      tag_82\n      jump\t// in\n    tag_81:\n      swap3\n      pop\n      pop\n      dup2\n      swap1\n      sstore\n      pop\n        /* \"contracts/Voting.sol\":1573:1584  nodeAddress */\n      dup1\n        /* \"contracts/Voting.sol\":1548:1613  NodeReported(msg.sender, nodeAddress, reportedNodes[nodeAddress]) */\n      0xffffffffffffffffffffffffffffffffffffffff\n      and\n        /* \"contracts/Voting.sol\":1561:1571  msg.sender */\n      caller\n        /* \"contracts/Voting.sol\":1548:1613  NodeReported(msg.sender, nodeAddress, reportedNodes[nodeAddress]) */\n      0xffffffffffffffffffffffffffffffffffffffff\n      and\n      0x3bcb888c6c9a015b13b43cedd36d49ff05dd359a7bab4d5e4bfdfc4be3dd0b61\n        /* \"contracts/Voting.sol\":1586:1599  reportedNodes */\n      0x03\n        /* \"contracts/Voting.sol\":1586:1612  reportedNodes[nodeAddress] */\n      0x00\n        /* \"contracts/Voting.sol\":1600:1611  nodeAddress */\n      dup6\n        /* \"contracts/Voting.sol\":1586:1612  reportedNodes[nodeAddress] */\n      0xffffffffffffffffffffffffffffffffffffffff\n      and\n      0xffffffffffffffffffffffffffffffffffffffff\n      and\n      dup2\n      mstore\n      0x20\n      add\n      swap1\n      dup2\n      mstore\n      0x20\n      add\n      0x00\n      keccak256\n      sload\n        /* \"contracts/Voting.sol\":1548:1613  NodeReported(msg.sender, nodeAddress, reportedNodes[nodeAddress]) */\n      mload(0x40)\n      tag_83\n      swap2\n      swap1\n      tag_29\n      jump\t// in\n    tag_83:\n      mload(0x40)\n      dup1\n      swap2\n      sub\n      swap1\n      log3\n        /* \"contracts/Voting.sol\":1624:1647  uint256 totalValidNodes */\n      0x00\n        /* \"contracts/Voting.sol\":1650:1661  nodeStorage */\n      0x01\n      0x00\n      swap1\n      sload\n      swap1\n      0x0100\n      exp\n      swap1\n      div\n      0xffffffffffffffffffffffffffffffffffffffff\n      and\n        /* \"contracts/Voting.sol\":1650:1680  nodeStorage.getTotalValidNodes */\n      0xffffffffffffffffffffffffffffffffffffffff\n      and\n      0x82fc2857\n        /* \"contracts/Voting.sol\":1650:1682  nodeStorage.getTotalValidNodes() */\n      mload(0x40)\n      dup2\n      0xffffffff\n      and\n      0xe0\n      shl\n      dup2\n      mstore\n      0x04\n      add\n      0x20\n      mload(0x40)\n      dup1\n      dup4\n      sub\n      dup2\n      dup7\n      gas\n      staticcall\n      iszero\n      dup1\n      iszero\n      tag_85\n      jumpi\n      returndatasize\n      0x00\n      dup1\n      returndatacopy\n      revert(0x00, returndatasize)\n    tag_85:\n      pop\n      pop\n      pop\n      pop\n      mload(0x40)\n      returndatasize\n      not(0x1f)\n      0x1f\n      dup3\n      add\n      and\n      dup3\n      add\n      dup1\n      0x40\n      mstore\n      pop\n      dup2\n      add\n      swap1\n      tag_86\n      swap2\n      swap1\n      tag_87\n      jump\t// in\n    tag_86:\n        /* \"contracts/Voting.sol\":1624:1682  uint256 totalValidNodes = nodeStorage.getTotalValidNodes() */\n      swap1\n      pop\n        /* \"contracts/Voting.sol\":1692:1711  uint256 quorumCount */\n      0x00\n        /* \"contracts/Voting.sol\":1776:1779  100 */\n      0x64\n        /* \"contracts/Voting.sol\":1758:1760  99 */\n      0x63\n        /* \"contracts/Voting.sol\":1733:1755  quorumThresholdPercent */\n      sload(0x02)\n        /* \"contracts/Voting.sol\":1715:1730  totalValidNodes */\n      dup5\n        /* \"contracts/Voting.sol\":1715:1755  totalValidNodes * quorumThresholdPercent */\n      tag_88\n      swap2\n      swap1\n      tag_89\n      jump\t// in\n    tag_88:\n        /* \"contracts/Voting.sol\":1715:1760  totalValidNodes * quorumThresholdPercent + 99 */\n      tag_90\n      swap2\n      swap1\n      tag_82\n      jump\t// in\n    tag_90:\n        /* \"contracts/Voting.sol\":1714:1779  (totalValidNodes * quorumThresholdPercent + 99) /... */\n      tag_91\n      swap2\n      swap1\n      tag_92\n      jump\t// in\n    tag_91:\n        /* \"contracts/Voting.sol\":1692:1779  uint256 quorumCount = (totalValidNodes * quorumThresholdPercent + 99) /... */\n      swap1\n      pop\n        /* \"contracts/Voting.sol\":1824:1835  quorumCount */\n      dup1\n        /* \"contracts/Voting.sol\":1794:1807  reportedNodes */\n      0x03\n        /* \"contracts/Voting.sol\":1794:1820  reportedNodes[nodeAddress] */\n      0x00\n        /* \"contracts/Voting.sol\":1808:1819  nodeAddress */\n      dup6\n        /* \"contracts/Voting.sol\":1794:1820  reportedNodes[nodeAddress] */\n      0xffffffffffffffffffffffffffffffffffffffff\n      and\n      0xffffffffffffffffffffffffffffffffffffffff\n      and\n      dup2\n      mstore\n      0x20\n      add\n      swap1\n      dup2\n      mstore\n      0x20\n      add\n      0x00\n      keccak256\n      sload\n        /* \"contracts/Voting.sol\":1794:1835  reportedNodes[nodeAddress] >= quorumCount */\n      lt\n        /* \"contracts/Voting.sol\":1790:1940  if (reportedNodes[nodeAddress] >= quorumCount) {... */\n      tag_93\n      jumpi\n        /* \"contracts/Voting.sol\":1851:1862  nodeStorage */\n      0x01\n      0x00\n      swap1\n      sload\n      swap1\n      0x0100\n      exp\n      swap1\n      div\n      0xffffffffffffffffffffffffffffffffffffffff\n      and\n        /* \"contracts/Voting.sol\":1851:1873  nodeStorage.removeNode */\n      0xffffffffffffffffffffffffffffffffffffffff\n      and\n      0xb2b99ec9\n        /* \"contracts/Voting.sol\":1874:1885  nodeAddress */\n      dup5\n        /* \"contracts/Voting.sol\":1851:1886  nodeStorage.removeNode(nodeAddress) */\n      mload(0x40)\n      dup3\n      0xffffffff\n      and\n      0xe0\n      shl\n      dup2\n      mstore\n      0x04\n      add\n      tag_94\n      swap2\n      swap1\n      tag_41\n      jump\t// in\n    tag_94:\n      0x00\n      mload(0x40)\n      dup1\n      dup4\n      sub\n      dup2\n      0x00\n      dup8\n      dup1\n      extcodesize\n      iszero\n      dup1\n      iszero\n      tag_95\n      jumpi\n      0x00\n      dup1\n      revert\n    tag_95:\n      pop\n      gas\n      call\n      iszero\n      dup1\n      iszero\n      tag_97\n      jumpi\n      returndatasize\n      0x00\n      dup1\n      returndatacopy\n      revert(0x00, returndatasize)\n    tag_97:\n      pop\n      pop\n      pop\n      pop\n        /* \"contracts/Voting.sol\":1917:1928  nodeAddress */\n      dup3\n        /* \"contracts/Voting.sol\":1905:1929  NodeRemoved(nodeAddress) */\n      0xffffffffffffffffffffffffffffffffffffffff\n      and\n      0xcfc24166db4bb677e857cacabd1541fb2b30645021b27c5130419589b84db52b\n      mload(0x40)\n      mload(0x40)\n      dup1\n      swap2\n      sub\n      swap1\n      log2\n        /* \"contracts/Voting.sol\":1790:1940  if (reportedNodes[nodeAddress] >= quorumCount) {... */\n    tag_93:\n        /* \"contracts/Voting.sol\":1239:1946  {... */\n      pop\n      pop\n        /* \"contracts/Voting.sol\":1180:1946  function reportNode(address nodeAddress) external onlyNode {... */\n      pop\n      jump\t// out\n        /* \"contracts/Voting.sol\":238:275  uint256 public quorumThresholdPercent */\n    tag_27:\n      sload(0x02)\n      dup2\n      jump\t// out\n        /* \"contracts/Voting.sol\":336:398  mapping(address => mapping(address => bool)) public reportLogs */\n    tag_33:\n      mstore(0x20, 0x04)\n      dup2\n      0x00\n      mstore\n      mstore(0x20, keccak256(0x00, 0x40))\n      dup1\n      0x00\n      mstore\n      keccak256(0x00, 0x40)\n      0x00\n      swap2\n      pop\n      swap2\n      pop\n      swap1\n      sload\n      swap1\n      0x0100\n      exp\n      swap1\n      div\n      0xff\n      and\n      dup2\n      jump\t// out\n        /* \"@openzeppelin/contracts@4.9.6/access/Ownable.sol\":1824:1925  function renounceOwnership() public virtual onlyOwner {... */\n    tag_37:\n        /* \"@openzeppelin/contracts@4.9.6/access/Ownable.sol\":1094:1107  _checkOwner() */\n      tag_99\n        /* \"@openzeppelin/contracts@4.9.6/access/Ownable.sol\":1094:1105  _checkOwner */\n      tag_54\n        /* \"@openzeppelin/contracts@4.9.6/access/Ownable.sol\":1094:1107  _checkOwner() */\n      jump\t// in\n    tag_99:\n        /* \"@openzeppelin/contracts@4.9.6/access/Ownable.sol\":1888:1918  _transferOwnership(address(0)) */\n      tag_101\n        /* \"@openzeppelin/contracts@4.9.6/access/Ownable.sol\":1915:1916  0 */\n      0x00\n        /* \"@openzeppelin/contracts@4.9.6/access/Ownable.sol\":1888:1906  _transferOwnership */\n      tag_102\n        /* \"@openzeppelin/contracts@4.9.6/access/Ownable.sol\":1888:1918  _transferOwnership(address(0)) */\n      jump\t// in\n    tag_101:\n        /* \"@openzeppelin/contracts@4.9.6/access/Ownable.sol\":1824:1925  function renounceOwnership() public virtual onlyOwner {... */\n      jump\t// out\n        /* \"@openzeppelin/contracts@4.9.6/access/Ownable.sol\":1201:1286  function owner() public view virtual returns (address) {... */\n    tag_39:\n        /* \"@openzeppelin/contracts@4.9.6/access/Ownable.sol\":1247:1254  address */\n      0x00\n        /* \"@openzeppelin/contracts@4.9.6/access/Ownable.sol\":1273:1279  _owner */\n      dup1\n      0x00\n      swap1\n      sload\n      swap1\n      0x0100\n      exp\n      swap1\n      div\n      0xffffffffffffffffffffffffffffffffffffffff\n      and\n        /* \"@openzeppelin/contracts@4.9.6/access/Ownable.sol\":1266:1279  return _owner */\n      swap1\n      pop\n        /* \"@openzeppelin/contracts@4.9.6/access/Ownable.sol\":1201:1286  function owner() public view virtual returns (address) {... */\n      swap1\n      jump\t// out\n        /* \"contracts/Voting.sol\":282:330  mapping(address => uint256) public reportedNodes */\n    tag_44:\n      mstore(0x20, 0x03)\n      dup1\n      0x00\n      mstore\n      keccak256(0x00, 0x40)\n      0x00\n      swap2\n      pop\n      swap1\n      pop\n      sload\n      dup2\n      jump\t// out\n        /* \"@openzeppelin/contracts@4.9.6/access/Ownable.sol\":2074:2272  function transferOwnership(address newOwner) public virtual onlyOwner {... */\n    tag_48:\n        /* \"@openzeppelin/contracts@4.9.6/access/Ownable.sol\":1094:1107  _checkOwner() */\n      tag_105\n        /* \"@openzeppelin/contracts@4.9.6/access/Ownable.sol\":1094:1105  _checkOwner */\n      tag_54\n        /* \"@openzeppelin/contracts@4.9.6/access/Ownable.sol\":1094:1107  _checkOwner() */\n      jump\t// in\n    tag_105:\n        /* \"@openzeppelin/contracts@4.9.6/access/Ownable.sol\":2182:2183  0 */\n      0x00\n        /* \"@openzeppelin/contracts@4.9.6/access/Ownable.sol\":2162:2184  newOwner != address(0) */\n      0xffffffffffffffffffffffffffffffffffffffff\n      and\n        /* \"@openzeppelin/contracts@4.9.6/access/Ownable.sol\":2162:2170  newOwner */\n      dup2\n        /* \"@openzeppelin/contracts@4.9.6/access/Ownable.sol\":2162:2184  newOwner != address(0) */\n      0xffffffffffffffffffffffffffffffffffffffff\n      and\n      sub\n        /* \"@openzeppelin/contracts@4.9.6/access/Ownable.sol\":2154:2227  require(newOwner != address(0), \"Ownable: new owner is the zero address\") */\n      tag_107\n      jumpi\n      mload(0x40)\n      0x08c379a000000000000000000000000000000000000000000000000000000000\n      dup2\n      mstore\n      0x04\n      add\n      tag_108\n      swap1\n      tag_109\n      jump\t// in\n    tag_108:\n      mload(0x40)\n      dup1\n      swap2\n      sub\n      swap1\n      revert\n    tag_107:\n        /* \"@openzeppelin/contracts@4.9.6/access/Ownable.sol\":2237:2265  _transferOwnership(newOwner) */\n      tag_110\n        /* \"@openzeppelin/contracts@4.9.6/access/Ownable.sol\":2256:2264  newOwner */\n      dup2\n        /* \"@openzeppelin/contracts@4.9.6/access/Ownable.sol\":2237:2255  _transferOwnership */\n      tag_102\n        /* \"@openzeppelin/contracts@4.9.6/access/Ownable.sol\":2237:2265  _transferOwnership(newOwner) */\n      jump\t// in\n    tag_110:\n        /* \"@openzeppelin/contracts@4.9.6/access/Ownable.sol\":2074:2272  function transferOwnership(address newOwner) public virtual onlyOwner {... */\n      pop\n      jump\t// out\n        /* \"contracts/Voting.sol\":2210:2406  function updateNodeStorage(address newNodeStorage) external onlyOwner {... */\n    tag_51:\n        /* \"@openzeppelin/contracts@4.9.6/access/Ownable.sol\":1094:1107  _checkOwner() */\n      tag_112\n        /* \"@openzeppelin/contracts@4.9.6/access/Ownable.sol\":1094:1105  _checkOwner */\n      tag_54\n        /* \"@openzeppelin/contracts@4.9.6/access/Ownable.sol\":1094:1107  _checkOwner() */\n      jump\t// in\n    tag_112:\n        /* \"contracts/Voting.sol\":2324:2325  0 */\n      0x00\n        /* \"contracts/Voting.sol\":2298:2326  newNodeStorage != address(0) */\n      0xffffffffffffffffffffffffffffffffffffffff\n      and\n        /* \"contracts/Voting.sol\":2298:2312  newNodeStorage */\n      dup2\n        /* \"contracts/Voting.sol\":2298:2326  newNodeStorage != address(0) */\n      0xffffffffffffffffffffffffffffffffffffffff\n      and\n      sub\n        /* \"contracts/Voting.sol\":2290:2346  require(newNodeStorage != address(0), \"Invalid address\") */\n      tag_114\n      jumpi\n      mload(0x40)\n      0x08c379a000000000000000000000000000000000000000000000000000000000\n      dup2\n      mstore\n      0x04\n      add\n      tag_115\n      swap1\n      tag_116\n      jump\t// in\n    tag_115:\n      mload(0x40)\n      dup1\n      swap2\n      sub\n      swap1\n      revert\n    tag_114:\n        /* \"contracts/Voting.sol\":2384:2398  newNodeStorage */\n      dup1\n        /* \"contracts/Voting.sol\":2356:2367  nodeStorage */\n      0x01\n      0x00\n        /* \"contracts/Voting.sol\":2356:2399  nodeStorage = INodesStorage(newNodeStorage) */\n      0x0100\n      exp\n      dup2\n      sload\n      dup2\n      0xffffffffffffffffffffffffffffffffffffffff\n      mul\n      not\n      and\n      swap1\n      dup4\n      0xffffffffffffffffffffffffffffffffffffffff\n      and\n      mul\n      or\n      swap1\n      sstore\n      pop\n        /* \"contracts/Voting.sol\":2210:2406  function updateNodeStorage(address newNodeStorage) external onlyOwner {... */\n      pop\n      jump\t// out\n        /* \"@openzeppelin/contracts@4.9.6/access/Ownable.sol\":1359:1489  function _checkOwner() internal view virtual {... */\n    tag_54:\n        /* \"@openzeppelin/contracts@4.9.6/access/Ownable.sol\":1433:1445  _msgSender() */\n      tag_118\n        /* \"@openzeppelin/contracts@4.9.6/access/Ownable.sol\":1433:1443  _msgSender */\n      tag_119\n        /* \"@openzeppelin/contracts@4.9.6/access/Ownable.sol\":1433:1445  _msgSender() */\n      jump\t// in\n    tag_118:\n        /* \"@openzeppelin/contracts@4.9.6/access/Ownable.sol\":1422:1445  owner() == _msgSender() */\n      0xffffffffffffffffffffffffffffffffffffffff\n      and\n        /* \"@openzeppelin/contracts@4.9.6/access/Ownable.sol\":1422:1429  owner() */\n      tag_120\n        /* \"@openzeppelin/contracts@4.9.6/access/Ownable.sol\":1422:1427  owner */\n      tag_39\n        /* \"@openzeppelin/contracts@4.9.6/access/Ownable.sol\":1422:1429  owner() */\n      jump\t// in\n    tag_120:\n        /* \"@openzeppelin/contracts@4.9.6/access/Ownable.sol\":1422:1445  owner() == _msgSender() */\n      0xffffffffffffffffffffffffffffffffffffffff\n      and\n      eq\n        /* \"@openzeppelin/contracts@4.9.6/access/Ownable.sol\":1414:1482  require(owner() == _msgSender(), \"Ownable: caller is not the owner\") */\n      tag_121\n      jumpi\n      mload(0x40)\n      0x08c379a000000000000000000000000000000000000000000000000000000000\n      dup2\n      mstore\n      0x04\n      add\n      tag_122\n      swap1\n      tag_123\n      jump\t// in\n    tag_122:\n      mload(0x40)\n      dup1\n      swap2\n      sub\n      swap1\n      revert\n    tag_121:\n        /* \"@openzeppelin/contracts@4.9.6/access/Ownable.sol\":1359:1489  function _checkOwner() internal view virtual {... */\n      jump\t// out\n        /* \"@openzeppelin/contracts@4.9.6/access/Ownable.sol\":2426:2613  function _transferOwnership(address newOwner) internal virtual {... */\n    tag_102:\n        /* \"@openzeppelin/contracts@4.9.6/access/Ownable.sol\":2499:2515  address oldOwner */\n      0x00\n        /* \"@openzeppelin/contracts@4.9.6/access/Ownable.sol\":2518:2524  _owner */\n      dup1\n      0x00\n      swap1\n      sload\n      swap1\n      0x0100\n      exp\n      swap1\n      div\n      0xffffffffffffffffffffffffffffffffffffffff\n      and\n        /* \"@openzeppelin/contracts@4.9.6/access/Ownable.sol\":2499:2524  address oldOwner = _owner */\n      swap1\n      pop\n        /* \"@openzeppelin/contracts@4.9.6/access/Ownable.sol\":2543:2551  newOwner */\n      dup2\n        /* \"@openzeppelin/contracts@4.9.6/access/Ownable.sol\":2534:2540  _owner */\n      0x00\n      dup1\n        /* \"@openzeppelin/contracts@4.9.6/access/Ownable.sol\":2534:2551  _owner = newOwner */\n      0x0100\n      exp\n      dup2\n      sload\n      dup2\n      0xffffffffffffffffffffffffffffffffffffffff\n      mul\n      not\n      and\n      swap1\n      dup4\n      0xffffffffffffffffffffffffffffffffffffffff\n      and\n      mul\n      or\n      swap1\n      sstore\n      pop\n        /* \"@openzeppelin/contracts@4.9.6/access/Ownable.sol\":2597:2605  newOwner */\n      dup2\n        /* \"@openzeppelin/contracts@4.9.6/access/Ownable.sol\":2566:2606  OwnershipTransferred(oldOwner, newOwner) */\n      0xffffffffffffffffffffffffffffffffffffffff\n      and\n        /* \"@openzeppelin/contracts@4.9.6/access/Ownable.sol\":2587:2595  oldOwner */\n      dup2\n        /* \"@openzeppelin/contracts@4.9.6/access/Ownable.sol\":2566:2606  OwnershipTransferred(oldOwner, newOwner) */\n      0xffffffffffffffffffffffffffffffffffffffff\n      and\n      0x8be0079c531659141344cd1fd0a4f28419497f9722a3daafe3b4186f6b6457e0\n      mload(0x40)\n      mload(0x40)\n      dup1\n      swap2\n      sub\n      swap1\n      log3\n        /* \"@openzeppelin/contracts@4.9.6/access/Ownable.sol\":2489:2613  {... */\n      pop\n        /* \"@openzeppelin/contracts@4.9.6/access/Ownable.sol\":2426:2613  function _transferOwnership(address newOwner) internal virtual {... */\n      pop\n      jump\t// out\n        /* \"@openzeppelin/contracts@4.9.6/utils/Context.sol\":655:751  function _msgSender() internal view virtual returns (address) {... */\n    tag_119:\n        /* \"@openzeppelin/contracts@4.9.6/utils/Context.sol\":708:715  address */\n      0x00\n        /* \"@openzeppelin/contracts@4.9.6/utils/Context.sol\":734:744  msg.sender */\n      caller\n        /* \"@openzeppelin/contracts@4.9.6/utils/Context.sol\":727:744  return msg.sender */\n      swap1\n      pop\n        /* \"@openzeppelin/contracts@4.9.6/utils/Context.sol\":655:751  function _msgSender() internal view virtual returns (address) {... */\n      swap1\n      jump\t// out\n        /* \"#utility.yul\":7:133   */\n    tag_126:\n        /* \"#utility.yul\":44:51   */\n      0x00\n        /* \"#utility.yul\":84:126   */\n      0xffffffffffffffffffffffffffffffffffffffff\n        /* \"#utility.yul\":77:82   */\n      dup3\n        /* \"#utility.yul\":73:127   */\n      and\n        /* \"#utility.yul\":62:127   */\n      swap1\n      pop\n        /* \"#utility.yul\":7:133   */\n      swap2\n      swap1\n      pop\n      jump\t// out\n        /* \"#utility.yul\":139:199   */\n    tag_127:\n        /* \"#utility.yul\":167:170   */\n      0x00\n        /* \"#utility.yul\":188:193   */\n      dup2\n        /* \"#utility.yul\":181:193   */\n      swap1\n      pop\n        /* \"#utility.yul\":139:199   */\n      swap2\n      swap1\n      pop\n      jump\t// out\n        /* \"#utility.yul\":205:347   */\n    tag_128:\n        /* \"#utility.yul\":255:264   */\n      0x00\n        /* \"#utility.yul\":288:341   */\n      tag_169\n        /* \"#utility.yul\":306:340   */\n      tag_170\n        /* \"#utility.yul\":315:339   */\n      tag_171\n        /* \"#utility.yul\":333:338   */\n      dup5\n        /* \"#utility.yul\":315:339   */\n      tag_126\n      jump\t// in\n    tag_171:\n        /* \"#utility.yul\":306:340   */\n      tag_127\n      jump\t// in\n    tag_170:\n        /* \"#utility.yul\":288:341   */\n      tag_126\n      jump\t// in\n    tag_169:\n        /* \"#utility.yul\":275:341   */\n      swap1\n      pop\n        /* \"#utility.yul\":205:347   */\n      swap2\n      swap1\n      pop\n      jump\t// out\n        /* \"#utility.yul\":353:479   */\n    tag_129:\n        /* \"#utility.yul\":403:412   */\n      0x00\n        /* \"#utility.yul\":436:473   */\n      tag_173\n        /* \"#utility.yul\":467:472   */\n      dup3\n        /* \"#utility.yul\":436:473   */\n      tag_128\n      jump\t// in\n    tag_173:\n        /* \"#utility.yul\":423:473   */\n      swap1\n      pop\n        /* \"#utility.yul\":353:479   */\n      swap2\n      swap1\n      pop\n      jump\t// out\n        /* \"#utility.yul\":485:632   */\n    tag_130:\n        /* \"#utility.yul\":556:565   */\n      0x00\n        /* \"#utility.yul\":589:626   */\n      tag_175\n        /* \"#utility.yul\":620:625   */\n      dup3\n        /* \"#utility.yul\":589:626   */\n      tag_129\n      jump\t// in\n    tag_175:\n        /* \"#utility.yul\":576:626   */\n      swap1\n      pop\n        /* \"#utility.yul\":485:632   */\n      swap2\n      swap1\n      pop\n      jump\t// out\n        /* \"#utility.yul\":638:811   */\n    tag_131:\n        /* \"#utility.yul\":746:804   */\n      tag_177\n        /* \"#utility.yul\":798:803   */\n      dup2\n        /* \"#utility.yul\":746:804   */\n      tag_130\n      jump\t// in\n    tag_177:\n        /* \"#utility.yul\":741:744   */\n      dup3\n        /* \"#utility.yul\":734:805   */\n      mstore\n        /* \"#utility.yul\":638:811   */\n      pop\n      pop\n      jump\t// out\n        /* \"#utility.yul\":817:1081   */\n    tag_17:\n        /* \"#utility.yul\":931:935   */\n      0x00\n        /* \"#utility.yul\":969:971   */\n      0x20\n        /* \"#utility.yul\":958:967   */\n      dup3\n        /* \"#utility.yul\":954:972   */\n      add\n        /* \"#utility.yul\":946:972   */\n      swap1\n      pop\n        /* \"#utility.yul\":982:1074   */\n      tag_179\n        /* \"#utility.yul\":1071:1072   */\n      0x00\n        /* \"#utility.yul\":1060:1069   */\n      dup4\n        /* \"#utility.yul\":1056:1073   */\n      add\n        /* \"#utility.yul\":1047:1053   */\n      dup5\n        /* \"#utility.yul\":982:1074   */\n      tag_131\n      jump\t// in\n    tag_179:\n        /* \"#utility.yul\":817:1081   */\n      swap3\n      swap2\n      pop\n      pop\n      jump\t// out\n        /* \"#utility.yul\":1168:1285   */\n    tag_133:\n        /* \"#utility.yul\":1277:1278   */\n      0x00\n        /* \"#utility.yul\":1274:1275   */\n      dup1\n        /* \"#utility.yul\":1267:1279   */\n      revert\n        /* \"#utility.yul\":1414:1491   */\n    tag_135:\n        /* \"#utility.yul\":1451:1458   */\n      0x00\n        /* \"#utility.yul\":1480:1485   */\n      dup2\n        /* \"#utility.yul\":1469:1485   */\n      swap1\n      pop\n        /* \"#utility.yul\":1414:1491   */\n      swap2\n      swap1\n      pop\n      jump\t// out\n        /* \"#utility.yul\":1497:1619   */\n    tag_136:\n        /* \"#utility.yul\":1570:1594   */\n      tag_185\n        /* \"#utility.yul\":1588:1593   */\n      dup2\n        /* \"#utility.yul\":1570:1594   */\n      tag_135\n      jump\t// in\n    tag_185:\n        /* \"#utility.yul\":1563:1568   */\n      dup2\n        /* \"#utility.yul\":1560:1595   */\n      eq\n        /* \"#utility.yul\":1550:1613   */\n      tag_186\n      jumpi\n        /* \"#utility.yul\":1609:1610   */\n      0x00\n        /* \"#utility.yul\":1606:1607   */\n      dup1\n        /* \"#utility.yul\":1599:1611   */\n      revert\n        /* \"#utility.yul\":1550:1613   */\n    tag_186:\n        /* \"#utility.yul\":1497:1619   */\n      pop\n      jump\t// out\n        /* \"#utility.yul\":1625:1764   */\n    tag_137:\n        /* \"#utility.yul\":1671:1676   */\n      0x00\n        /* \"#utility.yul\":1709:1715   */\n      dup2\n        /* \"#utility.yul\":1696:1716   */\n      calldataload\n        /* \"#utility.yul\":1687:1716   */\n      swap1\n      pop\n        /* \"#utility.yul\":1725:1758   */\n      tag_188\n        /* \"#utility.yul\":1752:1757   */\n      dup2\n        /* \"#utility.yul\":1725:1758   */\n      tag_136\n      jump\t// in\n    tag_188:\n        /* \"#utility.yul\":1625:1764   */\n      swap3\n      swap2\n      pop\n      pop\n      jump\t// out\n        /* \"#utility.yul\":1770:2099   */\n    tag_20:\n        /* \"#utility.yul\":1829:1835   */\n      0x00\n        /* \"#utility.yul\":1878:1880   */\n      0x20\n        /* \"#utility.yul\":1866:1875   */\n      dup3\n        /* \"#utility.yul\":1857:1864   */\n      dup5\n        /* \"#utility.yul\":1853:1876   */\n      sub\n        /* \"#utility.yul\":1849:1881   */\n      slt\n        /* \"#utility.yul\":1846:1965   */\n      iszero\n      tag_190\n      jumpi\n        /* \"#utility.yul\":1884:1963   */\n      tag_191\n      tag_133\n      jump\t// in\n    tag_191:\n        /* \"#utility.yul\":1846:1965   */\n    tag_190:\n        /* \"#utility.yul\":2004:2005   */\n      0x00\n        /* \"#utility.yul\":2029:2082   */\n      tag_192\n        /* \"#utility.yul\":2074:2081   */\n      dup5\n        /* \"#utility.yul\":2065:2071   */\n      dup3\n        /* \"#utility.yul\":2054:2063   */\n      dup6\n        /* \"#utility.yul\":2050:2072   */\n      add\n        /* \"#utility.yul\":2029:2082   */\n      tag_137\n      jump\t// in\n    tag_192:\n        /* \"#utility.yul\":2019:2082   */\n      swap2\n      pop\n        /* \"#utility.yul\":1975:2092   */\n      pop\n        /* \"#utility.yul\":1770:2099   */\n      swap3\n      swap2\n      pop\n      pop\n      jump\t// out\n        /* \"#utility.yul\":2105:2201   */\n    tag_138:\n        /* \"#utility.yul\":2142:2149   */\n      0x00\n        /* \"#utility.yul\":2171:2195   */\n      tag_194\n        /* \"#utility.yul\":2189:2194   */\n      dup3\n        /* \"#utility.yul\":2171:2195   */\n      tag_126\n      jump\t// in\n    tag_194:\n        /* \"#utility.yul\":2160:2195   */\n      swap1\n      pop\n        /* \"#utility.yul\":2105:2201   */\n      swap2\n      swap1\n      pop\n      jump\t// out\n        /* \"#utility.yul\":2207:2329   */\n    tag_139:\n        /* \"#utility.yul\":2280:2304   */\n      tag_196\n        /* \"#utility.yul\":2298:2303   */\n      dup2\n        /* \"#utility.yul\":2280:2304   */\n      tag_138\n      jump\t// in\n    tag_196:\n        /* \"#utility.yul\":2273:2278   */\n      dup2\n        /* \"#utility.yul\":2270:2305   */\n      eq\n        /* \"#utility.yul\":2260:2323   */\n      tag_197\n      jumpi\n        /* \"#utility.yul\":2319:2320   */\n      0x00\n        /* \"#utility.yul\":2316:2317   */\n      dup1\n        /* \"#utility.yul\":2309:2321   */\n      revert\n        /* \"#utility.yul\":2260:2323   */\n    tag_197:\n        /* \"#utility.yul\":2207:2329   */\n      pop\n      jump\t// out\n        /* \"#utility.yul\":2335:2474   */\n    tag_140:\n        /* \"#utility.yul\":2381:2386   */\n      0x00\n        /* \"#utility.yul\":2419:2425   */\n      dup2\n        /* \"#utility.yul\":2406:2426   */\n      calldataload\n        /* \"#utility.yul\":2397:2426   */\n      swap1\n      pop\n        /* \"#utility.yul\":2435:2468   */\n      tag_199\n        /* \"#utility.yul\":2462:2467   */\n      dup2\n        /* \"#utility.yul\":2435:2468   */\n      tag_139\n      jump\t// in\n    tag_199:\n        /* \"#utility.yul\":2335:2474   */\n      swap3\n      swap2\n      pop\n      pop\n      jump\t// out\n        /* \"#utility.yul\":2480:2809   */\n    tag_24:\n        /* \"#utility.yul\":2539:2545   */\n      0x00\n        /* \"#utility.yul\":2588:2590   */\n      0x20\n        /* \"#utility.yul\":2576:2585   */\n      dup3\n        /* \"#utility.yul\":2567:2574   */\n      dup5\n        /* \"#utility.yul\":2563:2586   */\n      sub\n        /* \"#utility.yul\":2559:2591   */\n      slt\n        /* \"#utility.yul\":2556:2675   */\n      iszero\n      tag_201\n      jumpi\n        /* \"#utility.yul\":2594:2673   */\n      tag_202\n      tag_133\n      jump\t// in\n    tag_202:\n        /* \"#utility.yul\":2556:2675   */\n    tag_201:\n        /* \"#utility.yul\":2714:2715   */\n      0x00\n        /* \"#utility.yul\":2739:2792   */\n      tag_203\n        /* \"#utility.yul\":2784:2791   */\n      dup5\n        /* \"#utility.yul\":2775:2781   */\n      dup3\n        /* \"#utility.yul\":2764:2773   */\n      dup6\n        /* \"#utility.yul\":2760:2782   */\n      add\n        /* \"#utility.yul\":2739:2792   */\n      tag_140\n      jump\t// in\n    tag_203:\n        /* \"#utility.yul\":2729:2792   */\n      swap2\n      pop\n        /* \"#utility.yul\":2685:2802   */\n      pop\n        /* \"#utility.yul\":2480:2809   */\n      swap3\n      swap2\n      pop\n      pop\n      jump\t// out\n        /* \"#utility.yul\":2815:2933   */\n    tag_141:\n        /* \"#utility.yul\":2902:2926   */\n      tag_205\n        /* \"#utility.yul\":2920:2925   */\n      dup2\n        /* \"#utility.yul\":2902:2926   */\n      tag_135\n      jump\t// in\n    tag_205:\n        /* \"#utility.yul\":2897:2900   */\n      dup3\n        /* \"#utility.yul\":2890:2927   */\n      mstore\n        /* \"#utility.yul\":2815:2933   */\n      pop\n      pop\n      jump\t// out\n        /* \"#utility.yul\":2939:3161   */\n    tag_29:\n        /* \"#utility.yul\":3032:3036   */\n      0x00\n        /* \"#utility.yul\":3070:3072   */\n      0x20\n        /* \"#utility.yul\":3059:3068   */\n      dup3\n        /* \"#utility.yul\":3055:3073   */\n      add\n        /* \"#utility.yul\":3047:3073   */\n      swap1\n      pop\n        /* \"#utility.yul\":3083:3154   */\n      tag_207\n        /* \"#utility.yul\":3151:3152   */\n      0x00\n        /* \"#utility.yul\":3140:3149   */\n      dup4\n        /* \"#utility.yul\":3136:3153   */\n      add\n        /* \"#utility.yul\":3127:3133   */\n      dup5\n        /* \"#utility.yul\":3083:3154   */\n      tag_141\n      jump\t// in\n    tag_207:\n        /* \"#utility.yul\":2939:3161   */\n      swap3\n      swap2\n      pop\n      pop\n      jump\t// out\n        /* \"#utility.yul\":3167:3641   */\n    tag_32:\n        /* \"#utility.yul\":3235:3241   */\n      0x00\n        /* \"#utility.yul\":3243:3249   */\n      dup1\n        /* \"#utility.yul\":3292:3294   */\n      0x40\n        /* \"#utility.yul\":3280:3289   */\n      dup4\n        /* \"#utility.yul\":3271:3278   */\n      dup6\n        /* \"#utility.yul\":3267:3290   */\n      sub\n        /* \"#utility.yul\":3263:3295   */\n      slt\n        /* \"#utility.yul\":3260:3379   */\n      iszero\n      tag_209\n      jumpi\n        /* \"#utility.yul\":3298:3377   */\n      tag_210\n      tag_133\n      jump\t// in\n    tag_210:\n        /* \"#utility.yul\":3260:3379   */\n    tag_209:\n        /* \"#utility.yul\":3418:3419   */\n      0x00\n        /* \"#utility.yul\":3443:3496   */\n      tag_211\n        /* \"#utility.yul\":3488:3495   */\n      dup6\n        /* \"#utility.yul\":3479:3485   */\n      dup3\n        /* \"#utility.yul\":3468:3477   */\n      dup7\n        /* \"#utility.yul\":3464:3486   */\n      add\n        /* \"#utility.yul\":3443:3496   */\n      tag_140\n      jump\t// in\n    tag_211:\n        /* \"#utility.yul\":3433:3496   */\n      swap3\n      pop\n        /* \"#utility.yul\":3389:3506   */\n      pop\n        /* \"#utility.yul\":3545:3547   */\n      0x20\n        /* \"#utility.yul\":3571:3624   */\n      tag_212\n        /* \"#utility.yul\":3616:3623   */\n      dup6\n        /* \"#utility.yul\":3607:3613   */\n      dup3\n        /* \"#utility.yul\":3596:3605   */\n      dup7\n        /* \"#utility.yul\":3592:3614   */\n      add\n        /* \"#utility.yul\":3571:3624   */\n      tag_140\n      jump\t// in\n    tag_212:\n        /* \"#utility.yul\":3561:3624   */\n      swap2\n      pop\n        /* \"#utility.yul\":3516:3634   */\n      pop\n        /* \"#utility.yul\":3167:3641   */\n      swap3\n      pop\n      swap3\n      swap1\n      pop\n      jump\t// out\n        /* \"#utility.yul\":3647:3737   */\n    tag_142:\n        /* \"#utility.yul\":3681:3688   */\n      0x00\n        /* \"#utility.yul\":3724:3729   */\n      dup2\n        /* \"#utility.yul\":3717:3730   */\n      iszero\n        /* \"#utility.yul\":3710:3731   */\n      iszero\n        /* \"#utility.yul\":3699:3731   */\n      swap1\n      pop\n        /* \"#utility.yul\":3647:3737   */\n      swap2\n      swap1\n      pop\n      jump\t// out\n        /* \"#utility.yul\":3743:3852   */\n    tag_143:\n        /* \"#utility.yul\":3824:3845   */\n      tag_215\n        /* \"#utility.yul\":3839:3844   */\n      dup2\n        /* \"#utility.yul\":3824:3845   */\n      tag_142\n      jump\t// in\n    tag_215:\n        /* \"#utility.yul\":3819:3822   */\n      dup3\n        /* \"#utility.yul\":3812:3846   */\n      mstore\n        /* \"#utility.yul\":3743:3852   */\n      pop\n      pop\n      jump\t// out\n        /* \"#utility.yul\":3858:4068   */\n    tag_35:\n        /* \"#utility.yul\":3945:3949   */\n      0x00\n        /* \"#utility.yul\":3983:3985   */\n      0x20\n        /* \"#utility.yul\":3972:3981   */\n      dup3\n        /* \"#utility.yul\":3968:3986   */\n      add\n        /* \"#utility.yul\":3960:3986   */\n      swap1\n      pop\n        /* \"#utility.yul\":3996:4061   */\n      tag_217\n        /* \"#utility.yul\":4058:4059   */\n      0x00\n        /* \"#utility.yul\":4047:4056   */\n      dup4\n        /* \"#utility.yul\":4043:4060   */\n      add\n        /* \"#utility.yul\":4034:4040   */\n      dup5\n        /* \"#utility.yul\":3996:4061   */\n      tag_143\n      jump\t// in\n    tag_217:\n        /* \"#utility.yul\":3858:4068   */\n      swap3\n      swap2\n      pop\n      pop\n      jump\t// out\n        /* \"#utility.yul\":4074:4192   */\n    tag_144:\n        /* \"#utility.yul\":4161:4185   */\n      tag_219\n        /* \"#utility.yul\":4179:4184   */\n      dup2\n        /* \"#utility.yul\":4161:4185   */\n      tag_138\n      jump\t// in\n    tag_219:\n        /* \"#utility.yul\":4156:4159   */\n      dup3\n        /* \"#utility.yul\":4149:4186   */\n      mstore\n        /* \"#utility.yul\":4074:4192   */\n      pop\n      pop\n      jump\t// out\n        /* \"#utility.yul\":4198:4420   */\n    tag_41:\n        /* \"#utility.yul\":4291:4295   */\n      0x00\n        /* \"#utility.yul\":4329:4331   */\n      0x20\n        /* \"#utility.yul\":4318:4327   */\n      dup3\n        /* \"#utility.yul\":4314:4332   */\n      add\n        /* \"#utility.yul\":4306:4332   */\n      swap1\n      pop\n        /* \"#utility.yul\":4342:4413   */\n      tag_221\n        /* \"#utility.yul\":4410:4411   */\n      0x00\n        /* \"#utility.yul\":4399:4408   */\n      dup4\n        /* \"#utility.yul\":4395:4412   */\n      add\n        /* \"#utility.yul\":4386:4392   */\n      dup5\n        /* \"#utility.yul\":4342:4413   */\n      tag_144\n      jump\t// in\n    tag_221:\n        /* \"#utility.yul\":4198:4420   */\n      swap3\n      swap2\n      pop\n      pop\n      jump\t// out\n        /* \"#utility.yul\":4426:4595   */\n    tag_145:\n        /* \"#utility.yul\":4510:4521   */\n      0x00\n        /* \"#utility.yul\":4544:4550   */\n      dup3\n        /* \"#utility.yul\":4539:4542   */\n      dup3\n        /* \"#utility.yul\":4532:4551   */\n      mstore\n        /* \"#utility.yul\":4584:4588   */\n      0x20\n        /* \"#utility.yul\":4579:4582   */\n      dup3\n        /* \"#utility.yul\":4575:4589   */\n      add\n        /* \"#utility.yul\":4560:4589   */\n      swap1\n      pop\n        /* \"#utility.yul\":4426:4595   */\n      swap3\n      swap2\n      pop\n      pop\n      jump\t// out\n        /* \"#utility.yul\":4601:4773   */\n    tag_146:\n        /* \"#utility.yul\":4741:4765   */\n      0x496e76616c69642071756f72756d2070657263656e7400000000000000000000\n        /* \"#utility.yul\":4737:4738   */\n      0x00\n        /* \"#utility.yul\":4729:4735   */\n      dup3\n        /* \"#utility.yul\":4725:4739   */\n      add\n        /* \"#utility.yul\":4718:4766   */\n      mstore\n        /* \"#utility.yul\":4601:4773   */\n      pop\n      jump\t// out\n        /* \"#utility.yul\":4779:5145   */\n    tag_147:\n        /* \"#utility.yul\":4921:4924   */\n      0x00\n        /* \"#utility.yul\":4942:5009   */\n      tag_225\n        /* \"#utility.yul\":5006:5008   */\n      0x16\n        /* \"#utility.yul\":5001:5004   */\n      dup4\n        /* \"#utility.yul\":4942:5009   */\n      tag_145\n      jump\t// in\n    tag_225:\n        /* \"#utility.yul\":4935:5009   */\n      swap2\n      pop\n        /* \"#utility.yul\":5018:5111   */\n      tag_226\n        /* \"#utility.yul\":5107:5110   */\n      dup3\n        /* \"#utility.yul\":5018:5111   */\n      tag_146\n      jump\t// in\n    tag_226:\n        /* \"#utility.yul\":5136:5138   */\n      0x20\n        /* \"#utility.yul\":5131:5134   */\n      dup3\n        /* \"#utility.yul\":5127:5139   */\n      add\n        /* \"#utility.yul\":5120:5139   */\n      swap1\n      pop\n        /* \"#utility.yul\":4779:5145   */\n      swap2\n      swap1\n      pop\n      jump\t// out\n        /* \"#utility.yul\":5151:5570   */\n    tag_59:\n        /* \"#utility.yul\":5317:5321   */\n      0x00\n        /* \"#utility.yul\":5355:5357   */\n      0x20\n        /* \"#utility.yul\":5344:5353   */\n      dup3\n        /* \"#utility.yul\":5340:5358   */\n      add\n        /* \"#utility.yul\":5332:5358   */\n      swap1\n      pop\n        /* \"#utility.yul\":5404:5413   */\n      dup2\n        /* \"#utility.yul\":5398:5402   */\n      dup2\n        /* \"#utility.yul\":5394:5414   */\n      sub\n        /* \"#utility.yul\":5390:5391   */\n      0x00\n        /* \"#utility.yul\":5379:5388   */\n      dup4\n        /* \"#utility.yul\":5375:5392   */\n      add\n        /* \"#utility.yul\":5368:5415   */\n      mstore\n        /* \"#utility.yul\":5432:5563   */\n      tag_228\n        /* \"#utility.yul\":5558:5562   */\n      dup2\n        /* \"#utility.yul\":5432:5563   */\n      tag_147\n      jump\t// in\n    tag_228:\n        /* \"#utility.yul\":5424:5563   */\n      swap1\n      pop\n        /* \"#utility.yul\":5151:5570   */\n      swap2\n      swap1\n      pop\n      jump\t// out\n        /* \"#utility.yul\":5576:5692   */\n    tag_148:\n        /* \"#utility.yul\":5646:5667   */\n      tag_230\n        /* \"#utility.yul\":5661:5666   */\n      dup2\n        /* \"#utility.yul\":5646:5667   */\n      tag_142\n      jump\t// in\n    tag_230:\n        /* \"#utility.yul\":5639:5644   */\n      dup2\n        /* \"#utility.yul\":5636:5668   */\n      eq\n        /* \"#utility.yul\":5626:5686   */\n      tag_231\n      jumpi\n        /* \"#utility.yul\":5682:5683   */\n      0x00\n        /* \"#utility.yul\":5679:5680   */\n      dup1\n        /* \"#utility.yul\":5672:5684   */\n      revert\n        /* \"#utility.yul\":5626:5686   */\n    tag_231:\n        /* \"#utility.yul\":5576:5692   */\n      pop\n      jump\t// out\n        /* \"#utility.yul\":5698:5835   */\n    tag_149:\n        /* \"#utility.yul\":5752:5757   */\n      0x00\n        /* \"#utility.yul\":5783:5789   */\n      dup2\n        /* \"#utility.yul\":5777:5790   */\n      mload\n        /* \"#utility.yul\":5768:5790   */\n      swap1\n      pop\n        /* \"#utility.yul\":5799:5829   */\n      tag_233\n        /* \"#utility.yul\":5823:5828   */\n      dup2\n        /* \"#utility.yul\":5799:5829   */\n      tag_148\n      jump\t// in\n    tag_233:\n        /* \"#utility.yul\":5698:5835   */\n      swap3\n      swap2\n      pop\n      pop\n      jump\t// out\n        /* \"#utility.yul\":5841:6186   */\n    tag_66:\n        /* \"#utility.yul\":5908:5914   */\n      0x00\n        /* \"#utility.yul\":5957:5959   */\n      0x20\n        /* \"#utility.yul\":5945:5954   */\n      dup3\n        /* \"#utility.yul\":5936:5943   */\n      dup5\n        /* \"#utility.yul\":5932:5955   */\n      sub\n        /* \"#utility.yul\":5928:5960   */\n      slt\n        /* \"#utility.yul\":5925:6044   */\n      iszero\n      tag_235\n      jumpi\n        /* \"#utility.yul\":5963:6042   */\n      tag_236\n      tag_133\n      jump\t// in\n    tag_236:\n        /* \"#utility.yul\":5925:6044   */\n    tag_235:\n        /* \"#utility.yul\":6083:6084   */\n      0x00\n        /* \"#utility.yul\":6108:6169   */\n      tag_237\n        /* \"#utility.yul\":6161:6168   */\n      dup5\n        /* \"#utility.yul\":6152:6158   */\n      dup3\n        /* \"#utility.yul\":6141:6150   */\n      dup6\n        /* \"#utility.yul\":6137:6159   */\n      add\n        /* \"#utility.yul\":6108:6169   */\n      tag_149\n      jump\t// in\n    tag_237:\n        /* \"#utility.yul\":6098:6169   */\n      swap2\n      pop\n        /* \"#utility.yul\":6054:6179   */\n      pop\n        /* \"#utility.yul\":5841:6186   */\n      swap3\n      swap2\n      pop\n      pop\n      jump\t// out\n        /* \"#utility.yul\":6192:6358   */\n    tag_150:\n        /* \"#utility.yul\":6332:6350   */\n      0x4e6f7420612076616c6964206e6f646500000000000000000000000000000000\n        /* \"#utility.yul\":6328:6329   */\n      0x00\n        /* \"#utility.yul\":6320:6326   */\n      dup3\n        /* \"#utility.yul\":6316:6330   */\n      add\n        /* \"#utility.yul\":6309:6351   */\n      mstore\n        /* \"#utility.yul\":6192:6358   */\n      pop\n      jump\t// out\n        /* \"#utility.yul\":6364:6730   */\n    tag_151:\n        /* \"#utility.yul\":6506:6509   */\n      0x00\n        /* \"#utility.yul\":6527:6594   */\n      tag_240\n        /* \"#utility.yul\":6591:6593   */\n      0x10\n        /* \"#utility.yul\":6586:6589   */\n      dup4\n        /* \"#utility.yul\":6527:6594   */\n      tag_145\n      jump\t// in\n    tag_240:\n        /* \"#utility.yul\":6520:6594   */\n      swap2\n      pop\n        /* \"#utility.yul\":6603:6696   */\n      tag_241\n        /* \"#utility.yul\":6692:6695   */\n      dup3\n        /* \"#utility.yul\":6603:6696   */\n      tag_150\n      jump\t// in\n    tag_241:\n        /* \"#utility.yul\":6721:6723   */\n      0x20\n        /* \"#utility.yul\":6716:6719   */\n      dup3\n        /* \"#utility.yul\":6712:6724   */\n      add\n        /* \"#utility.yul\":6705:6724   */\n      swap1\n      pop\n        /* \"#utility.yul\":6364:6730   */\n      swap2\n      swap1\n      pop\n      jump\t// out\n        /* \"#utility.yul\":6736:7155   */\n    tag_69:\n        /* \"#utility.yul\":6902:6906   */\n      0x00\n        /* \"#utility.yul\":6940:6942   */\n      0x20\n        /* \"#utility.yul\":6929:6938   */\n      dup3\n        /* \"#utility.yul\":6925:6943   */\n      add\n        /* \"#utility.yul\":6917:6943   */\n      swap1\n      pop\n        /* \"#utility.yul\":6989:6998   */\n      dup2\n        /* \"#utility.yul\":6983:6987   */\n      dup2\n        /* \"#utility.yul\":6979:6999   */\n      sub\n        /* \"#utility.yul\":6975:6976   */\n      0x00\n        /* \"#utility.yul\":6964:6973   */\n      dup4\n        /* \"#utility.yul\":6960:6977   */\n      add\n        /* \"#utility.yul\":6953:7000   */\n      mstore\n        /* \"#utility.yul\":7017:7148   */\n      tag_243\n        /* \"#utility.yul\":7143:7147   */\n      dup2\n        /* \"#utility.yul\":7017:7148   */\n      tag_151\n      jump\t// in\n    tag_243:\n        /* \"#utility.yul\":7009:7148   */\n      swap1\n      pop\n        /* \"#utility.yul\":6736:7155   */\n      swap2\n      swap1\n      pop\n      jump\t// out\n        /* \"#utility.yul\":7161:7337   */\n    tag_152:\n        /* \"#utility.yul\":7301:7329   */\n      0x546172676574206973206e6f7420612076616c6964206e6f6465000000000000\n        /* \"#utility.yul\":7297:7298   */\n      0x00\n        /* \"#utility.yul\":7289:7295   */\n      dup3\n        /* \"#utility.yul\":7285:7299   */\n      add\n        /* \"#utility.yul\":7278:7330   */\n      mstore\n        /* \"#utility.yul\":7161:7337   */\n      pop\n      jump\t// out\n        /* \"#utility.yul\":7343:7709   */\n    tag_153:\n        /* \"#utility.yul\":7485:7488   */\n      0x00\n        /* \"#utility.yul\":7506:7573   */\n      tag_246\n        /* \"#utility.yul\":7570:7572   */\n      0x1a\n        /* \"#utility.yul\":7565:7568   */\n      dup4\n        /* \"#utility.yul\":7506:7573   */\n      tag_145\n      jump\t// in\n    tag_246:\n        /* \"#utility.yul\":7499:7573   */\n      swap2\n      pop\n        /* \"#utility.yul\":7582:7675   */\n      tag_247\n        /* \"#utility.yul\":7671:7674   */\n      dup3\n        /* \"#utility.yul\":7582:7675   */\n      tag_152\n      jump\t// in\n    tag_247:\n        /* \"#utility.yul\":7700:7702   */\n      0x20\n        /* \"#utility.yul\":7695:7698   */\n      dup3\n        /* \"#utility.yul\":7691:7703   */\n      add\n        /* \"#utility.yul\":7684:7703   */\n      swap1\n      pop\n        /* \"#utility.yul\":7343:7709   */\n      swap2\n      swap1\n      pop\n      jump\t// out\n        /* \"#utility.yul\":7715:8134   */\n    tag_77:\n        /* \"#utility.yul\":7881:7885   */\n      0x00\n        /* \"#utility.yul\":7919:7921   */\n      0x20\n        /* \"#utility.yul\":7908:7917   */\n      dup3\n        /* \"#utility.yul\":7904:7922   */\n      add\n        /* \"#utility.yul\":7896:7922   */\n      swap1\n      pop\n        /* \"#utility.yul\":7968:7977   */\n      dup2\n        /* \"#utility.yul\":7962:7966   */\n      dup2\n        /* \"#utility.yul\":7958:7978   */\n      sub\n        /* \"#utility.yul\":7954:7955   */\n      0x00\n        /* \"#utility.yul\":7943:7952   */\n      dup4\n        /* \"#utility.yul\":7939:7956   */\n      add\n        /* \"#utility.yul\":7932:7979   */\n      mstore\n        /* \"#utility.yul\":7996:8127   */\n      tag_249\n        /* \"#utility.yul\":8122:8126   */\n      dup2\n        /* \"#utility.yul\":7996:8127   */\n      tag_153\n      jump\t// in\n    tag_249:\n        /* \"#utility.yul\":7988:8127   */\n      swap1\n      pop\n        /* \"#utility.yul\":7715:8134   */\n      swap2\n      swap1\n      pop\n      jump\t// out\n        /* \"#utility.yul\":8140:8311   */\n    tag_154:\n        /* \"#utility.yul\":8280:8303   */\n      0x4e6f646520616c7265616479207265706f727465640000000000000000000000\n        /* \"#utility.yul\":8276:8277   */\n      0x00\n        /* \"#utility.yul\":8268:8274   */\n      dup3\n        /* \"#utility.yul\":8264:8278   */\n      add\n        /* \"#utility.yul\":8257:8304   */\n      mstore\n        /* \"#utility.yul\":8140:8311   */\n      pop\n      jump\t// out\n        /* \"#utility.yul\":8317:8683   */\n    tag_155:\n        /* \"#utility.yul\":8459:8462   */\n      0x00\n        /* \"#utility.yul\":8480:8547   */\n      tag_252\n        /* \"#utility.yul\":8544:8546   */\n      0x15\n        /* \"#utility.yul\":8539:8542   */\n      dup4\n        /* \"#utility.yul\":8480:8547   */\n      tag_145\n      jump\t// in\n    tag_252:\n        /* \"#utility.yul\":8473:8547   */\n      swap2\n      pop\n        /* \"#utility.yul\":8556:8649   */\n      tag_253\n        /* \"#utility.yul\":8645:8648   */\n      dup3\n        /* \"#utility.yul\":8556:8649   */\n      tag_154\n      jump\t// in\n    tag_253:\n        /* \"#utility.yul\":8674:8676   */\n      0x20\n        /* \"#utility.yul\":8669:8672   */\n      dup3\n        /* \"#utility.yul\":8665:8677   */\n      add\n        /* \"#utility.yul\":8658:8677   */\n      swap1\n      pop\n        /* \"#utility.yul\":8317:8683   */\n      swap2\n      swap1\n      pop\n      jump\t// out\n        /* \"#utility.yul\":8689:9108   */\n    tag_80:\n        /* \"#utility.yul\":8855:8859   */\n      0x00\n        /* \"#utility.yul\":8893:8895   */\n      0x20\n        /* \"#utility.yul\":8882:8891   */\n      dup3\n        /* \"#utility.yul\":8878:8896   */\n      add\n        /* \"#utility.yul\":8870:8896   */\n      swap1\n      pop\n        /* \"#utility.yul\":8942:8951   */\n      dup2\n        /* \"#utility.yul\":8936:8940   */\n      dup2\n        /* \"#utility.yul\":8932:8952   */\n      sub\n        /* \"#utility.yul\":8928:8929   */\n      0x00\n        /* \"#utility.yul\":8917:8926   */\n      dup4\n        /* \"#utility.yul\":8913:8930   */\n      add\n        /* \"#utility.yul\":8906:8953   */\n      mstore\n        /* \"#utility.yul\":8970:9101   */\n      tag_255\n        /* \"#utility.yul\":9096:9100   */\n      dup2\n        /* \"#utility.yul\":8970:9101   */\n      tag_155\n      jump\t// in\n    tag_255:\n        /* \"#utility.yul\":8962:9101   */\n      swap1\n      pop\n        /* \"#utility.yul\":8689:9108   */\n      swap2\n      swap1\n      pop\n      jump\t// out\n        /* \"#utility.yul\":9114:9294   */\n    tag_156:\n        /* \"#utility.yul\":9162:9239   */\n      0x4e487b7100000000000000000000000000000000000000000000000000000000\n        /* \"#utility.yul\":9159:9160   */\n      0x00\n        /* \"#utility.yul\":9152:9240   */\n      mstore\n        /* \"#utility.yul\":9259:9263   */\n      0x11\n        /* \"#utility.yul\":9256:9257   */\n      0x04\n        /* \"#utility.yul\":9249:9264   */\n      mstore\n        /* \"#utility.yul\":9283:9287   */\n      0x24\n        /* \"#utility.yul\":9280:9281   */\n      0x00\n        /* \"#utility.yul\":9273:9288   */\n      revert\n        /* \"#utility.yul\":9300:9491   */\n    tag_82:\n        /* \"#utility.yul\":9340:9343   */\n      0x00\n        /* \"#utility.yul\":9359:9379   */\n      tag_258\n        /* \"#utility.yul\":9377:9378   */\n      dup3\n        /* \"#utility.yul\":9359:9379   */\n      tag_135\n      jump\t// in\n    tag_258:\n        /* \"#utility.yul\":9354:9379   */\n      swap2\n      pop\n        /* \"#utility.yul\":9393:9413   */\n      tag_259\n        /* \"#utility.yul\":9411:9412   */\n      dup4\n        /* \"#utility.yul\":9393:9413   */\n      tag_135\n      jump\t// in\n    tag_259:\n        /* \"#utility.yul\":9388:9413   */\n      swap3\n      pop\n        /* \"#utility.yul\":9436:9437   */\n      dup3\n        /* \"#utility.yul\":9433:9434   */\n      dup3\n        /* \"#utility.yul\":9429:9438   */\n      add\n        /* \"#utility.yul\":9422:9438   */\n      swap1\n      pop\n        /* \"#utility.yul\":9457:9460   */\n      dup1\n        /* \"#utility.yul\":9454:9455   */\n      dup3\n        /* \"#utility.yul\":9451:9461   */\n      gt\n        /* \"#utility.yul\":9448:9484   */\n      iszero\n      tag_260\n      jumpi\n        /* \"#utility.yul\":9464:9482   */\n      tag_261\n      tag_156\n      jump\t// in\n    tag_261:\n        /* \"#utility.yul\":9448:9484   */\n    tag_260:\n        /* \"#utility.yul\":9300:9491   */\n      swap3\n      swap2\n      pop\n      pop\n      jump\t// out\n        /* \"#utility.yul\":9497:9640   */\n    tag_157:\n        /* \"#utility.yul\":9554:9559   */\n      0x00\n        /* \"#utility.yul\":9585:9591   */\n      dup2\n        /* \"#utility.yul\":9579:9592   */\n      mload\n        /* \"#utility.yul\":9570:9592   */\n      swap1\n      pop\n        /* \"#utility.yul\":9601:9634   */\n      tag_263\n        /* \"#utility.yul\":9628:9633   */\n      dup2\n        /* \"#utility.yul\":9601:9634   */\n      tag_136\n      jump\t// in\n    tag_263:\n        /* \"#utility.yul\":9497:9640   */\n      swap3\n      swap2\n      pop\n      pop\n      jump\t// out\n        /* \"#utility.yul\":9646:9997   */\n    tag_87:\n        /* \"#utility.yul\":9716:9722   */\n      0x00\n        /* \"#utility.yul\":9765:9767   */\n      0x20\n        /* \"#utility.yul\":9753:9762   */\n      dup3\n        /* \"#utility.yul\":9744:9751   */\n      dup5\n        /* \"#utility.yul\":9740:9763   */\n      sub\n        /* \"#utility.yul\":9736:9768   */\n      slt\n        /* \"#utility.yul\":9733:9852   */\n      iszero\n      tag_265\n      jumpi\n        /* \"#utility.yul\":9771:9850   */\n      tag_266\n      tag_133\n      jump\t// in\n    tag_266:\n        /* \"#utility.yul\":9733:9852   */\n    tag_265:\n        /* \"#utility.yul\":9891:9892   */\n      0x00\n        /* \"#utility.yul\":9916:9980   */\n      tag_267\n        /* \"#utility.yul\":9972:9979   */\n      dup5\n        /* \"#utility.yul\":9963:9969   */\n      dup3\n        /* \"#utility.yul\":9952:9961   */\n      dup6\n        /* \"#utility.yul\":9948:9970   */\n      add\n        /* \"#utility.yul\":9916:9980   */\n      tag_157\n      jump\t// in\n    tag_267:\n        /* \"#utility.yul\":9906:9980   */\n      swap2\n      pop\n        /* \"#utility.yul\":9862:9990   */\n      pop\n        /* \"#utility.yul\":9646:9997   */\n      swap3\n      swap2\n      pop\n      pop\n      jump\t// out\n        /* \"#utility.yul\":10003:10413   */\n    tag_89:\n        /* \"#utility.yul\":10043:10050   */\n      0x00\n        /* \"#utility.yul\":10066:10086   */\n      tag_269\n        /* \"#utility.yul\":10084:10085   */\n      dup3\n        /* \"#utility.yul\":10066:10086   */\n      tag_135\n      jump\t// in\n    tag_269:\n        /* \"#utility.yul\":10061:10086   */\n      swap2\n      pop\n        /* \"#utility.yul\":10100:10120   */\n      tag_270\n        /* \"#utility.yul\":10118:10119   */\n      dup4\n        /* \"#utility.yul\":10100:10120   */\n      tag_135\n      jump\t// in\n    tag_270:\n        /* \"#utility.yul\":10095:10120   */\n      swap3\n      pop\n        /* \"#utility.yul\":10155:10156   */\n      dup3\n        /* \"#utility.yul\":10152:10153   */\n      dup3\n        /* \"#utility.yul\":10148:10157   */\n      mul\n        /* \"#utility.yul\":10177:10207   */\n      tag_271\n        /* \"#utility.yul\":10195:10206   */\n      dup2\n        /* \"#utility.yul\":10177:10207   */\n      tag_135\n      jump\t// in\n    tag_271:\n        /* \"#utility.yul\":10166:10207   */\n      swap2\n      pop\n        /* \"#utility.yul\":10356:10357   */\n      dup3\n        /* \"#utility.yul\":10347:10354   */\n      dup3\n        /* \"#utility.yul\":10343:10358   */\n      div\n        /* \"#utility.yul\":10340:10341   */\n      dup5\n        /* \"#utility.yul\":10337:10359   */\n      eq\n        /* \"#utility.yul\":10317:10318   */\n      dup4\n        /* \"#utility.yul\":10310:10319   */\n      iszero\n        /* \"#utility.yul\":10290:10373   */\n      or\n        /* \"#utility.yul\":10267:10406   */\n      tag_272\n      jumpi\n        /* \"#utility.yul\":10386:10404   */\n      tag_273\n      tag_156\n      jump\t// in\n    tag_273:\n        /* \"#utility.yul\":10267:10406   */\n    tag_272:\n        /* \"#utility.yul\":10051:10413   */\n      pop\n        /* \"#utility.yul\":10003:10413   */\n      swap3\n      swap2\n      pop\n      pop\n      jump\t// out\n        /* \"#utility.yul\":10419:10599   */\n    tag_158:\n        /* \"#utility.yul\":10467:10544   */\n      0x4e487b7100000000000000000000000000000000000000000000000000000000\n        /* \"#utility.yul\":10464:10465   */\n      0x00\n        /* \"#utility.yul\":10457:10545   */\n      mstore\n        /* \"#utility.yul\":10564:10568   */\n      0x12\n        /* \"#utility.yul\":10561:10562   */\n      0x04\n        /* \"#utility.yul\":10554:10569   */\n      mstore\n        /* \"#utility.yul\":10588:10592   */\n      0x24\n        /* \"#utility.yul\":10585:10586   */\n      0x00\n        /* \"#utility.yul\":10578:10593   */\n      revert\n        /* \"#utility.yul\":10605:10790   */\n    tag_92:\n        /* \"#utility.yul\":10645:10646   */\n      0x00\n        /* \"#utility.yul\":10662:10682   */\n      tag_276\n        /* \"#utility.yul\":10680:10681   */\n      dup3\n        /* \"#utility.yul\":10662:10682   */\n      tag_135\n      jump\t// in\n    tag_276:\n        /* \"#utility.yul\":10657:10682   */\n      swap2\n      pop\n        /* \"#utility.yul\":10696:10716   */\n      tag_277\n        /* \"#utility.yul\":10714:10715   */\n      dup4\n        /* \"#utility.yul\":10696:10716   */\n      tag_135\n      jump\t// in\n    tag_277:\n        /* \"#utility.yul\":10691:10716   */\n      swap3\n      pop\n        /* \"#utility.yul\":10735:10736   */\n      dup3\n        /* \"#utility.yul\":10725:10760   */\n      tag_278\n      jumpi\n        /* \"#utility.yul\":10740:10758   */\n      tag_279\n      tag_158\n      jump\t// in\n    tag_279:\n        /* \"#utility.yul\":10725:10760   */\n    tag_278:\n        /* \"#utility.yul\":10782:10783   */\n      dup3\n        /* \"#utility.yul\":10779:10780   */\n      dup3\n        /* \"#utility.yul\":10775:10784   */\n      div\n        /* \"#utility.yul\":10770:10784   */\n      swap1\n      pop\n        /* \"#utility.yul\":10605:10790   */\n      swap3\n      swap2\n      pop\n      pop\n      jump\t// out\n        /* \"#utility.yul\":10796:11021   */\n    tag_159:\n        /* \"#utility.yul\":10936:10970   */\n      0x4f776e61626c653a206e6577206f776e657220697320746865207a65726f2061\n        /* \"#utility.yul\":10932:10933   */\n      0x00\n        /* \"#utility.yul\":10924:10930   */\n      dup3\n        /* \"#utility.yul\":10920:10934   */\n      add\n        /* \"#utility.yul\":10913:10971   */\n      mstore\n        /* \"#utility.yul\":11005:11013   */\n      0x6464726573730000000000000000000000000000000000000000000000000000\n        /* \"#utility.yul\":11000:11002   */\n      0x20\n        /* \"#utility.yul\":10992:10998   */\n      dup3\n        /* \"#utility.yul\":10988:11003   */\n      add\n        /* \"#utility.yul\":10981:11014   */\n      mstore\n        /* \"#utility.yul\":10796:11021   */\n      pop\n      jump\t// out\n        /* \"#utility.yul\":11027:11393   */\n    tag_160:\n        /* \"#utility.yul\":11169:11172   */\n      0x00\n        /* \"#utility.yul\":11190:11257   */\n      tag_282\n        /* \"#utility.yul\":11254:11256   */\n      0x26\n        /* \"#utility.yul\":11249:11252   */\n      dup4\n        /* \"#utility.yul\":11190:11257   */\n      tag_145\n      jump\t// in\n    tag_282:\n        /* \"#utility.yul\":11183:11257   */\n      swap2\n      pop\n        /* \"#utility.yul\":11266:11359   */\n      tag_283\n        /* \"#utility.yul\":11355:11358   */\n      dup3\n        /* \"#utility.yul\":11266:11359   */\n      tag_159\n      jump\t// in\n    tag_283:\n        /* \"#utility.yul\":11384:11386   */\n      0x40\n        /* \"#utility.yul\":11379:11382   */\n      dup3\n        /* \"#utility.yul\":11375:11387   */\n      add\n        /* \"#utility.yul\":11368:11387   */\n      swap1\n      pop\n        /* \"#utility.yul\":11027:11393   */\n      swap2\n      swap1\n      pop\n      jump\t// out\n        /* \"#utility.yul\":11399:11818   */\n    tag_109:\n        /* \"#utility.yul\":11565:11569   */\n      0x00\n        /* \"#utility.yul\":11603:11605   */\n      0x20\n        /* \"#utility.yul\":11592:11601   */\n      dup3\n        /* \"#utility.yul\":11588:11606   */\n      add\n        /* \"#utility.yul\":11580:11606   */\n      swap1\n      pop\n        /* \"#utility.yul\":11652:11661   */\n      dup2\n        /* \"#utility.yul\":11646:11650   */\n      dup2\n        /* \"#utility.yul\":11642:11662   */\n      sub\n        /* \"#utility.yul\":11638:11639   */\n      0x00\n        /* \"#utility.yul\":11627:11636   */\n      dup4\n        /* \"#utility.yul\":11623:11640   */\n      add\n        /* \"#utility.yul\":11616:11663   */\n      mstore\n        /* \"#utility.yul\":11680:11811   */\n      tag_285\n        /* \"#utility.yul\":11806:11810   */\n      dup2\n        /* \"#utility.yul\":11680:11811   */\n      tag_160\n      jump\t// in\n    tag_285:\n        /* \"#utility.yul\":11672:11811   */\n      swap1\n      pop\n        /* \"#utility.yul\":11399:11818   */\n      swap2\n      swap1\n      pop\n      jump\t// out\n        /* \"#utility.yul\":11824:11989   */\n    tag_161:\n        /* \"#utility.yul\":11964:11981   */\n      0x496e76616c696420616464726573730000000000000000000000000000000000\n        /* \"#utility.yul\":11960:11961   */\n      0x00\n        /* \"#utility.yul\":11952:11958   */\n      dup3\n        /* \"#utility.yul\":11948:11962   */\n      add\n        /* \"#utility.yul\":11941:11982   */\n      mstore\n        /* \"#utility.yul\":11824:11989   */\n      pop\n      jump\t// out\n        /* \"#utility.yul\":11995:12361   */\n    tag_162:\n        /* \"#utility.yul\":12137:12140   */\n      0x00\n        /* \"#utility.yul\":12158:12225   */\n      tag_288\n        /* \"#utility.yul\":12222:12224   */\n      0x0f\n        /* \"#utility.yul\":12217:12220   */\n      dup4\n        /* \"#utility.yul\":12158:12225   */\n      tag_145\n      jump\t// in\n    tag_288:\n        /* \"#utility.yul\":12151:12225   */\n      swap2\n      pop\n        /* \"#utility.yul\":12234:12327   */\n      tag_289\n        /* \"#utility.yul\":12323:12326   */\n      dup3\n        /* \"#utility.yul\":12234:12327   */\n      tag_161\n      jump\t// in\n    tag_289:\n        /* \"#utility.yul\":12352:12354   */\n      0x20\n        /* \"#utility.yul\":12347:12350   */\n      dup3\n        /* \"#utility.yul\":12343:12355   */\n      add\n        /* \"#utility.yul\":12336:12355   */\n      swap1\n      pop\n        /* \"#utility.yul\":11995:12361   */\n      swap2\n      swap1\n      pop\n      jump\t// out\n        /* \"#utility.yul\":12367:12786   */\n    tag_116:\n        /* \"#utility.yul\":12533:12537   */\n      0x00\n        /* \"#utility.yul\":12571:12573   */\n      0x20\n        /* \"#utility.yul\":12560:12569   */\n      dup3\n        /* \"#utility.yul\":12556:12574   */\n      add\n        /* \"#utility.yul\":12548:12574   */\n      swap1\n      pop\n        /* \"#utility.yul\":12620:12629   */\n      dup2\n        /* \"#utility.yul\":12614:12618   */\n      dup2\n        /* \"#utility.yul\":12610:12630   */\n      sub\n        /* \"#utility.yul\":12606:12607   */\n      0x00\n        /* \"#utility.yul\":12595:12604   */\n      dup4\n        /* \"#utility.yul\":12591:12608   */\n      add\n        /* \"#utility.yul\":12584:12631   */\n      mstore\n        /* \"#utility.yul\":12648:12779   */\n      tag_291\n        /* \"#utility.yul\":12774:12778   */\n      dup2\n        /* \"#utility.yul\":12648:12779   */\n      tag_162\n      jump\t// in\n    tag_291:\n        /* \"#utility.yul\":12640:12779   */\n      swap1\n      pop\n        /* \"#utility.yul\":12367:12786   */\n      swap2\n      swap1\n      pop\n      jump\t// out\n        /* \"#utility.yul\":12792:12974   */\n    tag_163:\n        /* \"#utility.yul\":12932:12966   */\n      0x4f776e61626c653a2063616c6c6572206973206e6f7420746865206f776e6572\n        /* \"#utility.yul\":12928:12929   */\n      0x00\n        /* \"#utility.yul\":12920:12926   */\n      dup3\n        /* \"#utility.yul\":12916:12930   */\n      add\n        /* \"#utility.yul\":12909:12967   */\n      mstore\n        /* \"#utility.yul\":12792:12974   */\n      pop\n      jump\t// out\n        /* \"#utility.yul\":12980:13346   */\n    tag_164:\n        /* \"#utility.yul\":13122:13125   */\n      0x00\n        /* \"#utility.yul\":13143:13210   */\n      tag_294\n        /* \"#utility.yul\":13207:13209   */\n      0x20\n        /* \"#utility.yul\":13202:13205   */\n      dup4\n        /* \"#utility.yul\":13143:13210   */\n      tag_145\n      jump\t// in\n    tag_294:\n        /* \"#utility.yul\":13136:13210   */\n      swap2\n      pop\n        /* \"#utility.yul\":13219:13312   */\n      tag_295\n        /* \"#utility.yul\":13308:13311   */\n      dup3\n        /* \"#utility.yul\":13219:13312   */\n      tag_163\n      jump\t// in\n    tag_295:\n        /* \"#utility.yul\":13337:13339   */\n      0x20\n        /* \"#utility.yul\":13332:13335   */\n      dup3\n        /* \"#utility.yul\":13328:13340   */\n      add\n        /* \"#utility.yul\":13321:13340   */\n      swap1\n      pop\n        /* \"#utility.yul\":12980:13346   */\n      swap2\n      swap1\n      pop\n      jump\t// out\n        /* \"#utility.yul\":13352:13771   */\n    tag_123:\n        /* \"#utility.yul\":13518:13522   */\n      0x00\n        /* \"#utility.yul\":13556:13558   */\n      0x20\n        /* \"#utility.yul\":13545:13554   */\n      dup3\n        /* \"#utility.yul\":13541:13559   */\n      add\n        /* \"#utility.yul\":13533:13559   */\n      swap1\n      pop\n        /* \"#utility.yul\":13605:13614   */\n      dup2\n        /* \"#utility.yul\":13599:13603   */\n      dup2\n        /* \"#utility.yul\":13595:13615   */\n      sub\n        /* \"#utility.yul\":13591:13592   */\n      0x00\n        /* \"#utility.yul\":13580:13589   */\n      dup4\n        /* \"#utility.yul\":13576:13593   */\n      add\n        /* \"#utility.yul\":13569:13616   */\n      mstore\n        /* \"#utility.yul\":13633:13764   */\n      tag_297\n        /* \"#utility.yul\":13759:13763   */\n      dup2\n        /* \"#utility.yul\":13633:13764   */\n      tag_164\n      jump\t// in\n    tag_297:\n        /* \"#utility.yul\":13625:13764   */\n      swap1\n      pop\n        /* \"#utility.yul\":13352:13771   */\n      swap2\n      swap1\n      pop\n      jump\t// out\n\n    auxdata: 0xa264697066735822122070e2db0c711c5052db8da3231e21b9575efdbe6d632f45c786fc85dbf7333af264736f6c634300081a0033\n}\n",
				"bytecode": {
					"linkReferences": {},
					"object": "608060405234801561000f575f80fd5b50604051611628380380611628833981810160405281019061003191906102b1565b61004d61004261015860201b60201c565b61015f60201b60201c565b5f73ffffffffffffffffffffffffffffffffffffffff168273ffffffffffffffffffffffffffffffffffffffff16036100bb576040517f08c379a00000000000000000000000000000000000000000000000000000000081526004016100b290610349565b60405180910390fd5b5f811180156100cb575060648111155b61010a576040517f08c379a0000000000000000000000000000000000000000000000000000000008152600401610101906103b1565b60405180910390fd5b8160015f6101000a81548173ffffffffffffffffffffffffffffffffffffffff021916908373ffffffffffffffffffffffffffffffffffffffff1602179055508060028190555050506103cf565b5f33905090565b5f805f9054906101000a900473ffffffffffffffffffffffffffffffffffffffff169050815f806101000a81548173ffffffffffffffffffffffffffffffffffffffff021916908373ffffffffffffffffffffffffffffffffffffffff1602179055508173ffffffffffffffffffffffffffffffffffffffff168173ffffffffffffffffffffffffffffffffffffffff167f8be0079c531659141344cd1fd0a4f28419497f9722a3daafe3b4186f6b6457e060405160405180910390a35050565b5f80fd5b5f73ffffffffffffffffffffffffffffffffffffffff82169050919050565b5f61024d82610224565b9050919050565b61025d81610243565b8114610267575f80fd5b50565b5f8151905061027881610254565b92915050565b5f819050919050565b6102908161027e565b811461029a575f80fd5b50565b5f815190506102ab81610287565b92915050565b5f80604083850312156102c7576102c6610220565b5b5f6102d48582860161026a565b92505060206102e58582860161029d565b9150509250929050565b5f82825260208201905092915050565b7f496e76616c69642073746f7261676520616464726573730000000000000000005f82015250565b5f6103336017836102ef565b915061033e826102ff565b602082019050919050565b5f6020820190508181035f83015261036081610327565b9050919050565b7f496e76616c69642071756f72756d2025000000000000000000000000000000005f82015250565b5f61039b6010836102ef565b91506103a682610367565b602082019050919050565b5f6020820190508181035f8301526103c88161038f565b9050919050565b61124c806103dc5f395ff3fe608060405234801561000f575f80fd5b506004361061009c575f3560e01c8063715018a611610064578063715018a6146101445780638da5cb5b1461014e578063c3f372251461016c578063f2fde38b1461019c578063f36a6c02146101b85761009c565b80631b14ca9b146100a0578063210a5e87146100be57806330034df1146100da5780633384d47d146100f6578063648a3a9214610114575b5f80fd5b6100a86101d4565b6040516100b59190610bd4565b60405180910390f35b6100d860048036038101906100d39190610c24565b6101f9565b005b6100f460048036038101906100ef9190610c8a565b610291565b005b6100fe61085a565b60405161010b9190610cc4565b60405180910390f35b61012e60048036038101906101299190610cdd565b610860565b60405161013b9190610d35565b60405180910390f35b61014c61088a565b005b61015661089d565b6040516101639190610d5d565b60405180910390f35b61018660048036038101906101819190610c8a565b6108c4565b6040516101939190610cc4565b60405180910390f35b6101b660048036038101906101b19190610c8a565b6108d9565b005b6101d260048036038101906101cd9190610c8a565b61095b565b005b60015f9054906101000a900473ffffffffffffffffffffffffffffffffffffffff1681565b610201610a14565b5f81118015610211575060648111155b610250576040517f08c379a000000000000000000000000000000000000000000000000000000000815260040161024790610dd0565b60405180910390fd5b806002819055507fbc589fccf641d342b7853c2c6faca39631d4d19efbe77e71e5611e31678c220e816040516102869190610cc4565b60405180910390a150565b60015f9054906101000a900473ffffffffffffffffffffffffffffffffffffffff1673ffffffffffffffffffffffffffffffffffffffff16639ebd11ef336040518263ffffffff1660e01b81526004016102eb9190610d5d565b602060405180830381865afa158015610306573d5f803e3d5ffd5b505050506040513d601f19601f8201168201806040525081019061032a9190610e18565b610369576040517f08c379a000000000000000000000000000000000000000000000000000000000815260040161036090610e8d565b60405180910390fd5b60015f9054906101000a900473ffffffffffffffffffffffffffffffffffffffff1673ffffffffffffffffffffffffffffffffffffffff16639ebd11ef826040518263ffffffff1660e01b81526004016103c39190610d5d565b602060405180830381865afa1580156103de573d5f803e3d5ffd5b505050506040513d601f19601f820116820180604052508101906104029190610e18565b610441576040517f08c379a000000000000000000000000000000000000000000000000000000000815260040161043890610ef5565b60405180910390fd5b60045f3373ffffffffffffffffffffffffffffffffffffffff1673ffffffffffffffffffffffffffffffffffffffff1681526020019081526020015f205f8273ffffffffffffffffffffffffffffffffffffffff1673ffffffffffffffffffffffffffffffffffffffff1681526020019081526020015f205f9054906101000a900460ff1615610506576040517f08c379a00000000000000000000000000000000000000000000000000000000081526004016104fd90610f5d565b60405180910390fd5b600160045f3373ffffffffffffffffffffffffffffffffffffffff1673ffffffffffffffffffffffffffffffffffffffff1681526020019081526020015f205f8373ffffffffffffffffffffffffffffffffffffffff1673ffffffffffffffffffffffffffffffffffffffff1681526020019081526020015f205f6101000a81548160ff021916908315150217905550600160035f8373ffffffffffffffffffffffffffffffffffffffff1673ffffffffffffffffffffffffffffffffffffffff1681526020019081526020015f205f8282546105e39190610fa8565b925050819055508073ffffffffffffffffffffffffffffffffffffffff163373ffffffffffffffffffffffffffffffffffffffff167f3bcb888c6c9a015b13b43cedd36d49ff05dd359a7bab4d5e4bfdfc4be3dd0b6160035f8573ffffffffffffffffffffffffffffffffffffffff1673ffffffffffffffffffffffffffffffffffffffff1681526020019081526020015f20546040516106849190610cc4565b60405180910390a35f60015f9054906101000a900473ffffffffffffffffffffffffffffffffffffffff1673ffffffffffffffffffffffffffffffffffffffff166382fc28576040518163ffffffff1660e01b8152600401602060405180830381865afa1580156106f7573d5f803e3d5ffd5b505050506040513d601f19601f8201168201806040525081019061071b9190610fef565b90505f6064606360025484610730919061101a565b61073a9190610fa8565b6107449190611088565b90508060035f8573ffffffffffffffffffffffffffffffffffffffff1673ffffffffffffffffffffffffffffffffffffffff1681526020019081526020015f2054106108555760015f9054906101000a900473ffffffffffffffffffffffffffffffffffffffff1673ffffffffffffffffffffffffffffffffffffffff1663b2b99ec9846040518263ffffffff1660e01b81526004016107e49190610d5d565b5f604051808303815f87803b1580156107fb575f80fd5b505af115801561080d573d5f803e3d5ffd5b505050508273ffffffffffffffffffffffffffffffffffffffff167fcfc24166db4bb677e857cacabd1541fb2b30645021b27c5130419589b84db52b60405160405180910390a25b505050565b60025481565b6004602052815f5260405f20602052805f5260405f205f915091509054906101000a900460ff1681565b610892610a14565b61089b5f610a92565b565b5f805f9054906101000a900473ffffffffffffffffffffffffffffffffffffffff16905090565b6003602052805f5260405f205f915090505481565b6108e1610a14565b5f73ffffffffffffffffffffffffffffffffffffffff168173ffffffffffffffffffffffffffffffffffffffff160361094f576040517f08c379a000000000000000000000000000000000000000000000000000000000815260040161094690611128565b60405180910390fd5b61095881610a92565b50565b610963610a14565b5f73ffffffffffffffffffffffffffffffffffffffff168173ffffffffffffffffffffffffffffffffffffffff16036109d1576040517f08c379a00000000000000000000000000000000000000000000000000000000081526004016109c890611190565b60405180910390fd5b8060015f6101000a81548173ffffffffffffffffffffffffffffffffffffffff021916908373ffffffffffffffffffffffffffffffffffffffff16021790555050565b610a1c610b53565b73ffffffffffffffffffffffffffffffffffffffff16610a3a61089d565b73ffffffffffffffffffffffffffffffffffffffff1614610a90576040517f08c379a0000000000000000000000000000000000000000000000000000000008152600401610a87906111f8565b60405180910390fd5b565b5f805f9054906101000a900473ffffffffffffffffffffffffffffffffffffffff169050815f806101000a81548173ffffffffffffffffffffffffffffffffffffffff021916908373ffffffffffffffffffffffffffffffffffffffff1602179055508173ffffffffffffffffffffffffffffffffffffffff168173ffffffffffffffffffffffffffffffffffffffff167f8be0079c531659141344cd1fd0a4f28419497f9722a3daafe3b4186f6b6457e060405160405180910390a35050565b5f33905090565b5f73ffffffffffffffffffffffffffffffffffffffff82169050919050565b5f819050919050565b5f610b9c610b97610b9284610b5a565b610b79565b610b5a565b9050919050565b5f610bad82610b82565b9050919050565b5f610bbe82610ba3565b9050919050565b610bce81610bb4565b82525050565b5f602082019050610be75f830184610bc5565b92915050565b5f80fd5b5f819050919050565b610c0381610bf1565b8114610c0d575f80fd5b50565b5f81359050610c1e81610bfa565b92915050565b5f60208284031215610c3957610c38610bed565b5b5f610c4684828501610c10565b91505092915050565b5f610c5982610b5a565b9050919050565b610c6981610c4f565b8114610c73575f80fd5b50565b5f81359050610c8481610c60565b92915050565b5f60208284031215610c9f57610c9e610bed565b5b5f610cac84828501610c76565b91505092915050565b610cbe81610bf1565b82525050565b5f602082019050610cd75f830184610cb5565b92915050565b5f8060408385031215610cf357610cf2610bed565b5b5f610d0085828601610c76565b9250506020610d1185828601610c76565b9150509250929050565b5f8115159050919050565b610d2f81610d1b565b82525050565b5f602082019050610d485f830184610d26565b92915050565b610d5781610c4f565b82525050565b5f602082019050610d705f830184610d4e565b92915050565b5f82825260208201905092915050565b7f496e76616c69642071756f72756d2070657263656e74000000000000000000005f82015250565b5f610dba601683610d76565b9150610dc582610d86565b602082019050919050565b5f6020820190508181035f830152610de781610dae565b9050919050565b610df781610d1b565b8114610e01575f80fd5b50565b5f81519050610e1281610dee565b92915050565b5f60208284031215610e2d57610e2c610bed565b5b5f610e3a84828501610e04565b91505092915050565b7f4e6f7420612076616c6964206e6f6465000000000000000000000000000000005f82015250565b5f610e77601083610d76565b9150610e8282610e43565b602082019050919050565b5f6020820190508181035f830152610ea481610e6b565b9050919050565b7f546172676574206973206e6f7420612076616c6964206e6f64650000000000005f82015250565b5f610edf601a83610d76565b9150610eea82610eab565b602082019050919050565b5f6020820190508181035f830152610f0c81610ed3565b9050919050565b7f4e6f646520616c7265616479207265706f7274656400000000000000000000005f82015250565b5f610f47601583610d76565b9150610f5282610f13565b602082019050919050565b5f6020820190508181035f830152610f7481610f3b565b9050919050565b7f4e487b71000000000000000000000000000000000000000000000000000000005f52601160045260245ffd5b5f610fb282610bf1565b9150610fbd83610bf1565b9250828201905080821115610fd557610fd4610f7b565b5b92915050565b5f81519050610fe981610bfa565b92915050565b5f6020828403121561100457611003610bed565b5b5f61101184828501610fdb565b91505092915050565b5f61102482610bf1565b915061102f83610bf1565b925082820261103d81610bf1565b9150828204841483151761105457611053610f7b565b5b5092915050565b7f4e487b71000000000000000000000000000000000000000000000000000000005f52601260045260245ffd5b5f61109282610bf1565b915061109d83610bf1565b9250826110ad576110ac61105b565b5b828204905092915050565b7f4f776e61626c653a206e6577206f776e657220697320746865207a65726f20615f8201527f6464726573730000000000000000000000000000000000000000000000000000602082015250565b5f611112602683610d76565b915061111d826110b8565b604082019050919050565b5f6020820190508181035f83015261113f81611106565b9050919050565b7f496e76616c6964206164647265737300000000000000000000000000000000005f82015250565b5f61117a600f83610d76565b915061118582611146565b602082019050919050565b5f6020820190508181035f8301526111a78161116e565b9050919050565b7f4f776e61626c653a2063616c6c6572206973206e6f7420746865206f776e65725f82015250565b5f6111e2602083610d76565b91506111ed826111ae565b602082019050919050565b5f6020820190508181035f83015261120f816111d6565b905091905056fea264697066735822122070e2db0c711c5052db8da3231e21b9575efdbe6d632f45c786fc85dbf7333af264736f6c634300081a0033",
					"opcodes": "PUSH1 0x80 PUSH1 0x40 MSTORE CALLVALUE DUP1 ISZERO PUSH2 0xF JUMPI PUSH0 DUP1 REVERT JUMPDEST POP PUSH1 0x40 MLOAD PUSH2 0x1628 CODESIZE SUB DUP1 PUSH2 0x1628 DUP4 CODECOPY DUP2 DUP2 ADD PUSH1 0x40 MSTORE DUP2 ADD SWAP1 PUSH2 0x31 SWAP2 SWAP1 PUSH2 0x2B1 JUMP JUMPDEST PUSH2 0x4D PUSH2 0x42 PUSH2 0x158 PUSH1 0x20 SHL PUSH1 0x20 SHR JUMP JUMPDEST PUSH2 0x15F PUSH1 0x20 SHL PUSH1 0x20 SHR JUMP JUMPDEST PUSH0 PUSH20 0xFFFFFFFFFFFFFFFFFFFFFFFFFFFFFFFFFFFFFFFF AND DUP3 PUSH20 0xFFFFFFFFFFFFFFFFFFFFFFFFFFFFFFFFFFFFFFFF AND SUB PUSH2 0xBB JUMPI PUSH1 0x40 MLOAD PUSH32 0x8C379A000000000000000000000000000000000000000000000000000000000 DUP2 MSTORE PUSH1 0x4 ADD PUSH2 0xB2 SWAP1 PUSH2 0x349 JUMP JUMPDEST PUSH1 0x40 MLOAD DUP1 SWAP2 SUB SWAP1 REVERT JUMPDEST PUSH0 DUP2 GT DUP1 ISZERO PUSH2 0xCB JUMPI POP PUSH1 0x64 DUP2 GT ISZERO JUMPDEST PUSH2 0x10A JUMPI PUSH1 0x40 MLOAD PUSH32 0x8C379A000000000000000000000000000000000000000000000000000000000 DUP2 MSTORE PUSH1 0x4 ADD PUSH2 0x101 SWAP1 PUSH2 0x3B1 JUMP JUMPDEST PUSH1 0x40 MLOAD DUP1 SWAP2 SUB SWAP1 REVERT JUMPDEST DUP2 PUSH1 0x1 PUSH0 PUSH2 0x100 EXP DUP2 SLOAD DUP2 PUSH20 0xFFFFFFFFFFFFFFFFFFFFFFFFFFFFFFFFFFFFFFFF MUL NOT AND SWAP1 DUP4 PUSH20 0xFFFFFFFFFFFFFFFFFFFFFFFFFFFFFFFFFFFFFFFF AND MUL OR SWAP1 SSTORE POP DUP1 PUSH1 0x2 DUP2 SWAP1 SSTORE POP POP POP PUSH2 0x3CF JUMP JUMPDEST PUSH0 CALLER SWAP1 POP SWAP1 JUMP JUMPDEST PUSH0 DUP1 PUSH0 SWAP1 SLOAD SWAP1 PUSH2 0x100 EXP SWAP1 DIV PUSH20 0xFFFFFFFFFFFFFFFFFFFFFFFFFFFFFFFFFFFFFFFF AND SWAP1 POP DUP2 PUSH0 DUP1 PUSH2 0x100 EXP DUP2 SLOAD DUP2 PUSH20 0xFFFFFFFFFFFFFFFFFFFFFFFFFFFFFFFFFFFFFFFF MUL NOT AND SWAP1 DUP4 PUSH20 0xFFFFFFFFFFFFFFFFFFFFFFFFFFFFFFFFFFFFFFFF AND MUL OR SWAP1 SSTORE POP DUP2 PUSH20 0xFFFFFFFFFFFFFFFFFFFFFFFFFFFFFFFFFFFFFFFF AND DUP2 PUSH20 0xFFFFFFFFFFFFFFFFFFFFFFFFFFFFFFFFFFFFFFFF AND PUSH32 0x8BE0079C531659141344CD1FD0A4F28419497F9722A3DAAFE3B4186F6B6457E0 PUSH1 0x40 MLOAD PUSH1 0x40 MLOAD DUP1 SWAP2 SUB SWAP1 LOG3 POP POP JUMP JUMPDEST PUSH0 DUP1 REVERT JUMPDEST PUSH0 PUSH20 0xFFFFFFFFFFFFFFFFFFFFFFFFFFFFFFFFFFFFFFFF DUP3 AND SWAP1 POP SWAP2 SWAP1 POP JUMP JUMPDEST PUSH0 PUSH2 0x24D DUP3 PUSH2 0x224 JUMP JUMPDEST SWAP1 POP SWAP2 SWAP1 POP JUMP JUMPDEST PUSH2 0x25D DUP2 PUSH2 0x243 JUMP JUMPDEST DUP2 EQ PUSH2 0x267 JUMPI PUSH0 DUP1 REVERT JUMPDEST POP JUMP JUMPDEST PUSH0 DUP2 MLOAD SWAP1 POP PUSH2 0x278 DUP2 PUSH2 0x254 JUMP JUMPDEST SWAP3 SWAP2 POP POP JUMP JUMPDEST PUSH0 DUP2 SWAP1 POP SWAP2 SWAP1 POP JUMP JUMPDEST PUSH2 0x290 DUP2 PUSH2 0x27E JUMP JUMPDEST DUP2 EQ PUSH2 0x29A JUMPI PUSH0 DUP1 REVERT JUMPDEST POP JUMP JUMPDEST PUSH0 DUP2 MLOAD SWAP1 POP PUSH2 0x2AB DUP2 PUSH2 0x287 JUMP JUMPDEST SWAP3 SWAP2 POP POP JUMP JUMPDEST PUSH0 DUP1 PUSH1 0x40 DUP4 DUP6 SUB SLT ISZERO PUSH2 0x2C7 JUMPI PUSH2 0x2C6 PUSH2 0x220 JUMP JUMPDEST JUMPDEST PUSH0 PUSH2 0x2D4 DUP6 DUP3 DUP7 ADD PUSH2 0x26A JUMP JUMPDEST SWAP3 POP POP PUSH1 0x20 PUSH2 0x2E5 DUP6 DUP3 DUP7 ADD PUSH2 0x29D JUMP JUMPDEST SWAP2 POP POP SWAP3 POP SWAP3 SWAP1 POP JUMP JUMPDEST PUSH0 DUP3 DUP3 MSTORE PUSH1 0x20 DUP3 ADD SWAP1 POP SWAP3 SWAP2 POP POP JUMP JUMPDEST PUSH32 0x496E76616C69642073746F726167652061646472657373000000000000000000 PUSH0 DUP3 ADD MSTORE POP JUMP JUMPDEST PUSH0 PUSH2 0x333 PUSH1 0x17 DUP4 PUSH2 0x2EF JUMP JUMPDEST SWAP2 POP PUSH2 0x33E DUP3 PUSH2 0x2FF JUMP JUMPDEST PUSH1 0x20 DUP3 ADD SWAP1 POP SWAP2 SWAP1 POP JUMP JUMPDEST PUSH0 PUSH1 0x20 DUP3 ADD SWAP1 POP DUP2 DUP2 SUB PUSH0 DUP4 ADD MSTORE PUSH2 0x360 DUP2 PUSH2 0x327 JUMP JUMPDEST SWAP1 POP SWAP2 SWAP1 POP JUMP JUMPDEST PUSH32 0x496E76616C69642071756F72756D202500000000000000000000000000000000 PUSH0 DUP3 ADD MSTORE POP JUMP JUMPDEST PUSH0 PUSH2 0x39B PUSH1 0x10 DUP4 PUSH2 0x2EF JUMP JUMPDEST SWAP2 POP PUSH2 0x3A6 DUP3 PUSH2 0x367 JUMP JUMPDEST PUSH1 0x20 DUP3 ADD SWAP1 POP SWAP2 SWAP1 POP JUMP JUMPDEST PUSH0 PUSH1 0x20 DUP3 ADD SWAP1 POP DUP2 DUP2 SUB PUSH0 DUP4 ADD MSTORE PUSH2 0x3C8 DUP2 PUSH2 0x38F JUMP JUMPDEST SWAP1 POP SWAP2 SWAP1 POP JUMP JUMPDEST PUSH2 0x124C DUP1 PUSH2 0x3DC PUSH0 CODECOPY PUSH0 RETURN INVALID PUSH1 0x80 PUSH1 0x40 MSTORE CALLVALUE DUP1 ISZERO PUSH2 0xF JUMPI PUSH0 DUP1 REVERT JUMPDEST POP PUSH1 0x4 CALLDATASIZE LT PUSH2 0x9C JUMPI PUSH0 CALLDATALOAD PUSH1 0xE0 SHR DUP1 PUSH4 0x715018A6 GT PUSH2 0x64 JUMPI DUP1 PUSH4 0x715018A6 EQ PUSH2 0x144 JUMPI DUP1 PUSH4 0x8DA5CB5B EQ PUSH2 0x14E JUMPI DUP1 PUSH4 0xC3F37225 EQ PUSH2 0x16C JUMPI DUP1 PUSH4 0xF2FDE38B EQ PUSH2 0x19C JUMPI DUP1 PUSH4 0xF36A6C02 EQ PUSH2 0x1B8 JUMPI PUSH2 0x9C JUMP JUMPDEST DUP1 PUSH4 0x1B14CA9B EQ PUSH2 0xA0 JUMPI DUP1 PUSH4 0x210A5E87 EQ PUSH2 0xBE JUMPI DUP1 PUSH4 0x30034DF1 EQ PUSH2 0xDA JUMPI DUP1 PUSH4 0x3384D47D EQ PUSH2 0xF6 JUMPI DUP1 PUSH4 0x648A3A92 EQ PUSH2 0x114 JUMPI JUMPDEST PUSH0 DUP1 REVERT JUMPDEST PUSH2 0xA8 PUSH2 0x1D4 JUMP JUMPDEST PUSH1 0x40 MLOAD PUSH2 0xB5 SWAP2 SWAP1 PUSH2 0xBD4 JUMP JUMPDEST PUSH1 0x40 MLOAD DUP1 SWAP2 SUB SWAP1 RETURN JUMPDEST PUSH2 0xD8 PUSH1 0x4 DUP1 CALLDATASIZE SUB DUP2 ADD SWAP1 PUSH2 0xD3 SWAP2 SWAP1 PUSH2 0xC24 JUMP JUMPDEST PUSH2 0x1F9 JUMP JUMPDEST STOP JUMPDEST PUSH2 0xF4 PUSH1 0x4 DUP1 CALLDATASIZE SUB DUP2 ADD SWAP1 PUSH2 0xEF SWAP2 SWAP1 PUSH2 0xC8A JUMP JUMPDEST PUSH2 0x291 JUMP JUMPDEST STOP JUMPDEST PUSH2 0xFE PUSH2 0x85A JUMP JUMPDEST PUSH1 0x40 MLOAD PUSH2 0x10B SWAP2 SWAP1 PUSH2 0xCC4 JUMP JUMPDEST PUSH1 0x40 MLOAD DUP1 SWAP2 SUB SWAP1 RETURN JUMPDEST PUSH2 0x12E PUSH1 0x4 DUP1 CALLDATASIZE SUB DUP2 ADD SWAP1 PUSH2 0x129 SWAP2 SWAP1 PUSH2 0xCDD JUMP JUMPDEST PUSH2 0x860 JUMP JUMPDEST PUSH1 0x40 MLOAD PUSH2 0x13B SWAP2 SWAP1 PUSH2 0xD35 JUMP JUMPDEST PUSH1 0x40 MLOAD DUP1 SWAP2 SUB SWAP1 RETURN JUMPDEST PUSH2 0x14C PUSH2 0x88A JUMP JUMPDEST STOP JUMPDEST PUSH2 0x156 PUSH2 0x89D JUMP JUMPDEST PUSH1 0x40 MLOAD PUSH2 0x163 SWAP2 SWAP1 PUSH2 0xD5D JUMP JUMPDEST PUSH1 0x40 MLOAD DUP1 SWAP2 SUB SWAP1 RETURN JUMPDEST PUSH2 0x186 PUSH1 0x4 DUP1 CALLDATASIZE SUB DUP2 ADD SWAP1 PUSH2 0x181 SWAP2 SWAP1 PUSH2 0xC8A JUMP JUMPDEST PUSH2 0x8C4 JUMP JUMPDEST PUSH1 0x40 MLOAD PUSH2 0x193 SWAP2 SWAP1 PUSH2 0xCC4 JUMP JUMPDEST PUSH1 0x40 MLOAD DUP1 SWAP2 SUB SWAP1 RETURN JUMPDEST PUSH2 0x1B6 PUSH1 0x4 DUP1 CALLDATASIZE SUB DUP2 ADD SWAP1 PUSH2 0x1B1 SWAP2 SWAP1 PUSH2 0xC8A JUMP JUMPDEST PUSH2 0x8D9 JUMP JUMPDEST STOP JUMPDEST PUSH2 0x1D2 PUSH1 0x4 DUP1 CALLDATASIZE SUB DUP2 ADD SWAP1 PUSH2 0x1CD SWAP2 SWAP1 PUSH2 0xC8A JUMP JUMPDEST PUSH2 0x95B JUMP JUMPDEST STOP JUMPDEST PUSH1 0x1 PUSH0 SWAP1 SLOAD SWAP1 PUSH2 0x100 EXP SWAP1 DIV PUSH20 0xFFFFFFFFFFFFFFFFFFFFFFFFFFFFFFFFFFFFFFFF AND DUP2 JUMP JUMPDEST PUSH2 0x201 PUSH2 0xA14 JUMP JUMPDEST PUSH0 DUP2 GT DUP1 ISZERO PUSH2 0x211 JUMPI POP PUSH1 0x64 DUP2 GT ISZERO JUMPDEST PUSH2 0x250 JUMPI PUSH1 0x40 MLOAD PUSH32 0x8C379A000000000000000000000000000000000000000000000000000000000 DUP2 MSTORE PUSH1 0x4 ADD PUSH2 0x247 SWAP1 PUSH2 0xDD0 JUMP JUMPDEST PUSH1 0x40 MLOAD DUP1 SWAP2 SUB SWAP1 REVERT JUMPDEST DUP1 PUSH1 0x2 DUP2 SWAP1 SSTORE POP PUSH32 0xBC589FCCF641D342B7853C2C6FACA39631D4D19EFBE77E71E5611E31678C220E DUP2 PUSH1 0x40 MLOAD PUSH2 0x286 SWAP2 SWAP1 PUSH2 0xCC4 JUMP JUMPDEST PUSH1 0x40 MLOAD DUP1 SWAP2 SUB SWAP1 LOG1 POP JUMP JUMPDEST PUSH1 0x1 PUSH0 SWAP1 SLOAD SWAP1 PUSH2 0x100 EXP SWAP1 DIV PUSH20 0xFFFFFFFFFFFFFFFFFFFFFFFFFFFFFFFFFFFFFFFF AND PUSH20 0xFFFFFFFFFFFFFFFFFFFFFFFFFFFFFFFFFFFFFFFF AND PUSH4 0x9EBD11EF CALLER PUSH1 0x40 MLOAD DUP3 PUSH4 0xFFFFFFFF AND PUSH1 0xE0 SHL DUP2 MSTORE PUSH1 0x4 ADD PUSH2 0x2EB SWAP2 SWAP1 PUSH2 0xD5D JUMP JUMPDEST PUSH1 0x20 PUSH1 0x40 MLOAD DUP1 DUP4 SUB DUP2 DUP7 GAS STATICCALL ISZERO DUP1 ISZERO PUSH2 0x306 JUMPI RETURNDATASIZE PUSH0 DUP1 RETURNDATACOPY RETURNDATASIZE PUSH0 REVERT JUMPDEST POP POP POP POP PUSH1 0x40 MLOAD RETURNDATASIZE PUSH1 0x1F NOT PUSH1 0x1F DUP3 ADD AND DUP3 ADD DUP1 PUSH1 0x40 MSTORE POP DUP2 ADD SWAP1 PUSH2 0x32A SWAP2 SWAP1 PUSH2 0xE18 JUMP JUMPDEST PUSH2 0x369 JUMPI PUSH1 0x40 MLOAD PUSH32 0x8C379A000000000000000000000000000000000000000000000000000000000 DUP2 MSTORE PUSH1 0x4 ADD PUSH2 0x360 SWAP1 PUSH2 0xE8D JUMP JUMPDEST PUSH1 0x40 MLOAD DUP1 SWAP2 SUB SWAP1 REVERT JUMPDEST PUSH1 0x1 PUSH0 SWAP1 SLOAD SWAP1 PUSH2 0x100 EXP SWAP1 DIV PUSH20 0xFFFFFFFFFFFFFFFFFFFFFFFFFFFFFFFFFFFFFFFF AND PUSH20 0xFFFFFFFFFFFFFFFFFFFFFFFFFFFFFFFFFFFFFFFF AND PUSH4 0x9EBD11EF DUP3 PUSH1 0x40 MLOAD DUP3 PUSH4 0xFFFFFFFF AND PUSH1 0xE0 SHL DUP2 MSTORE PUSH1 0x4 ADD PUSH2 0x3C3 SWAP2 SWAP1 PUSH2 0xD5D JUMP JUMPDEST PUSH1 0x20 PUSH1 0x40 MLOAD DUP1 DUP4 SUB DUP2 DUP7 GAS STATICCALL ISZERO DUP1 ISZERO PUSH2 0x3DE JUMPI RETURNDATASIZE PUSH0 DUP1 RETURNDATACOPY RETURNDATASIZE PUSH0 REVERT JUMPDEST POP POP POP POP PUSH1 0x40 MLOAD RETURNDATASIZE PUSH1 0x1F NOT PUSH1 0x1F DUP3 ADD AND DUP3 ADD DUP1 PUSH1 0x40 MSTORE POP DUP2 ADD SWAP1 PUSH2 0x402 SWAP2 SWAP1 PUSH2 0xE18 JUMP JUMPDEST PUSH2 0x441 JUMPI PUSH1 0x40 MLOAD PUSH32 0x8C379A000000000000000000000000000000000000000000000000000000000 DUP2 MSTORE PUSH1 0x4 ADD PUSH2 0x438 SWAP1 PUSH2 0xEF5 JUMP JUMPDEST PUSH1 0x40 MLOAD DUP1 SWAP2 SUB SWAP1 REVERT JUMPDEST PUSH1 0x4 PUSH0 CALLER PUSH20 0xFFFFFFFFFFFFFFFFFFFFFFFFFFFFFFFFFFFFFFFF AND PUSH20 0xFFFFFFFFFFFFFFFFFFFFFFFFFFFFFFFFFFFFFFFF AND DUP2 MSTORE PUSH1 0x20 ADD SWAP1 DUP2 MSTORE PUSH1 0x20 ADD PUSH0 KECCAK256 PUSH0 DUP3 PUSH20 0xFFFFFFFFFFFFFFFFFFFFFFFFFFFFFFFFFFFFFFFF AND PUSH20 0xFFFFFFFFFFFFFFFFFFFFFFFFFFFFFFFFFFFFFFFF AND DUP2 MSTORE PUSH1 0x20 ADD SWAP1 DUP2 MSTORE PUSH1 0x20 ADD PUSH0 KECCAK256 PUSH0 SWAP1 SLOAD SWAP1 PUSH2 0x100 EXP SWAP1 DIV PUSH1 0xFF AND ISZERO PUSH2 0x506 JUMPI PUSH1 0x40 MLOAD PUSH32 0x8C379A000000000000000000000000000000000000000000000000000000000 DUP2 MSTORE PUSH1 0x4 ADD PUSH2 0x4FD SWAP1 PUSH2 0xF5D JUMP JUMPDEST PUSH1 0x40 MLOAD DUP1 SWAP2 SUB SWAP1 REVERT JUMPDEST PUSH1 0x1 PUSH1 0x4 PUSH0 CALLER PUSH20 0xFFFFFFFFFFFFFFFFFFFFFFFFFFFFFFFFFFFFFFFF AND PUSH20 0xFFFFFFFFFFFFFFFFFFFFFFFFFFFFFFFFFFFFFFFF AND DUP2 MSTORE PUSH1 0x20 ADD SWAP1 DUP2 MSTORE PUSH1 0x20 ADD PUSH0 KECCAK256 PUSH0 DUP4 PUSH20 0xFFFFFFFFFFFFFFFFFFFFFFFFFFFFFFFFFFFFFFFF AND PUSH20 0xFFFFFFFFFFFFFFFFFFFFFFFFFFFFFFFFFFFFFFFF AND DUP2 MSTORE PUSH1 0x20 ADD SWAP1 DUP2 MSTORE PUSH1 0x20 ADD PUSH0 KECCAK256 PUSH0 PUSH2 0x100 EXP DUP2 SLOAD DUP2 PUSH1 0xFF MUL NOT AND SWAP1 DUP4 ISZERO ISZERO MUL OR SWAP1 SSTORE POP PUSH1 0x1 PUSH1 0x3 PUSH0 DUP4 PUSH20 0xFFFFFFFFFFFFFFFFFFFFFFFFFFFFFFFFFFFFFFFF AND PUSH20 0xFFFFFFFFFFFFFFFFFFFFFFFFFFFFFFFFFFFFFFFF AND DUP2 MSTORE PUSH1 0x20 ADD SWAP1 DUP2 MSTORE PUSH1 0x20 ADD PUSH0 KECCAK256 PUSH0 DUP3 DUP3 SLOAD PUSH2 0x5E3 SWAP2 SWAP1 PUSH2 0xFA8 JUMP JUMPDEST SWAP3 POP POP DUP2 SWAP1 SSTORE POP DUP1 PUSH20 0xFFFFFFFFFFFFFFFFFFFFFFFFFFFFFFFFFFFFFFFF AND CALLER PUSH20 0xFFFFFFFFFFFFFFFFFFFFFFFFFFFFFFFFFFFFFFFF AND PUSH32 0x3BCB888C6C9A015B13B43CEDD36D49FF05DD359A7BAB4D5E4BFDFC4BE3DD0B61 PUSH1 0x3 PUSH0 DUP6 PUSH20 0xFFFFFFFFFFFFFFFFFFFFFFFFFFFFFFFFFFFFFFFF AND PUSH20 0xFFFFFFFFFFFFFFFFFFFFFFFFFFFFFFFFFFFFFFFF AND DUP2 MSTORE PUSH1 0x20 ADD SWAP1 DUP2 MSTORE PUSH1 0x20 ADD PUSH0 KECCAK256 SLOAD PUSH1 0x40 MLOAD PUSH2 0x684 SWAP2 SWAP1 PUSH2 0xCC4 JUMP JUMPDEST PUSH1 0x40 MLOAD DUP1 SWAP2 SUB SWAP1 LOG3 PUSH0 PUSH1 0x1 PUSH0 SWAP1 SLOAD SWAP1 PUSH2 0x100 EXP SWAP1 DIV PUSH20 0xFFFFFFFFFFFFFFFFFFFFFFFFFFFFFFFFFFFFFFFF AND PUSH20 0xFFFFFFFFFFFFFFFFFFFFFFFFFFFFFFFFFFFFFFFF AND PUSH4 0x82FC2857 PUSH1 0x40 MLOAD DUP2 PUSH4 0xFFFFFFFF AND PUSH1 0xE0 SHL DUP2 MSTORE PUSH1 0x4 ADD PUSH1 0x20 PUSH1 0x40 MLOAD DUP1 DUP4 SUB DUP2 DUP7 GAS STATICCALL ISZERO DUP1 ISZERO PUSH2 0x6F7 JUMPI RETURNDATASIZE PUSH0 DUP1 RETURNDATACOPY RETURNDATASIZE PUSH0 REVERT JUMPDEST POP POP POP POP PUSH1 0x40 MLOAD RETURNDATASIZE PUSH1 0x1F NOT PUSH1 0x1F DUP3 ADD AND DUP3 ADD DUP1 PUSH1 0x40 MSTORE POP DUP2 ADD SWAP1 PUSH2 0x71B SWAP2 SWAP1 PUSH2 0xFEF JUMP JUMPDEST SWAP1 POP PUSH0 PUSH1 0x64 PUSH1 0x63 PUSH1 0x2 SLOAD DUP5 PUSH2 0x730 SWAP2 SWAP1 PUSH2 0x101A JUMP JUMPDEST PUSH2 0x73A SWAP2 SWAP1 PUSH2 0xFA8 JUMP JUMPDEST PUSH2 0x744 SWAP2 SWAP1 PUSH2 0x1088 JUMP JUMPDEST SWAP1 POP DUP1 PUSH1 0x3 PUSH0 DUP6 PUSH20 0xFFFFFFFFFFFFFFFFFFFFFFFFFFFFFFFFFFFFFFFF AND PUSH20 0xFFFFFFFFFFFFFFFFFFFFFFFFFFFFFFFFFFFFFFFF AND DUP2 MSTORE PUSH1 0x20 ADD SWAP1 DUP2 MSTORE PUSH1 0x20 ADD PUSH0 KECCAK256 SLOAD LT PUSH2 0x855 JUMPI PUSH1 0x1 PUSH0 SWAP1 SLOAD SWAP1 PUSH2 0x100 EXP SWAP1 DIV PUSH20 0xFFFFFFFFFFFFFFFFFFFFFFFFFFFFFFFFFFFFFFFF AND PUSH20 0xFFFFFFFFFFFFFFFFFFFFFFFFFFFFFFFFFFFFFFFF AND PUSH4 0xB2B99EC9 DUP5 PUSH1 0x40 MLOAD DUP3 PUSH4 0xFFFFFFFF AND PUSH1 0xE0 SHL DUP2 MSTORE PUSH1 0x4 ADD PUSH2 0x7E4 SWAP2 SWAP1 PUSH2 0xD5D JUMP JUMPDEST PUSH0 PUSH1 0x40 MLOAD DUP1 DUP4 SUB DUP2 PUSH0 DUP8 DUP1 EXTCODESIZE ISZERO DUP1 ISZERO PUSH2 0x7FB JUMPI PUSH0 DUP1 REVERT JUMPDEST POP GAS CALL ISZERO DUP1 ISZERO PUSH2 0x80D JUMPI RETURNDATASIZE PUSH0 DUP1 RETURNDATACOPY RETURNDATASIZE PUSH0 REVERT JUMPDEST POP POP POP POP DUP3 PUSH20 0xFFFFFFFFFFFFFFFFFFFFFFFFFFFFFFFFFFFFFFFF AND PUSH32 0xCFC24166DB4BB677E857CACABD1541FB2B30645021B27C5130419589B84DB52B PUSH1 0x40 MLOAD PUSH1 0x40 MLOAD DUP1 SWAP2 SUB SWAP1 LOG2 JUMPDEST POP POP POP JUMP JUMPDEST PUSH1 0x2 SLOAD DUP2 JUMP JUMPDEST PUSH1 0x4 PUSH1 0x20 MSTORE DUP2 PUSH0 MSTORE PUSH1 0x40 PUSH0 KECCAK256 PUSH1 0x20 MSTORE DUP1 PUSH0 MSTORE PUSH1 0x40 PUSH0 KECCAK256 PUSH0 SWAP2 POP SWAP2 POP SWAP1 SLOAD SWAP1 PUSH2 0x100 EXP SWAP1 DIV PUSH1 0xFF AND DUP2 JUMP JUMPDEST PUSH2 0x892 PUSH2 0xA14 JUMP JUMPDEST PUSH2 0x89B PUSH0 PUSH2 0xA92 JUMP JUMPDEST JUMP JUMPDEST PUSH0 DUP1 PUSH0 SWAP1 SLOAD SWAP1 PUSH2 0x100 EXP SWAP1 DIV PUSH20 0xFFFFFFFFFFFFFFFFFFFFFFFFFFFFFFFFFFFFFFFF AND SWAP1 POP SWAP1 JUMP JUMPDEST PUSH1 0x3 PUSH1 0x20 MSTORE DUP1 PUSH0 MSTORE PUSH1 0x40 PUSH0 KECCAK256 PUSH0 SWAP2 POP SWAP1 POP SLOAD DUP2 JUMP JUMPDEST PUSH2 0x8E1 PUSH2 0xA14 JUMP JUMPDEST PUSH0 PUSH20 0xFFFFFFFFFFFFFFFFFFFFFFFFFFFFFFFFFFFFFFFF AND DUP2 PUSH20 0xFFFFFFFFFFFFFFFFFFFFFFFFFFFFFFFFFFFFFFFF AND SUB PUSH2 0x94F JUMPI PUSH1 0x40 MLOAD PUSH32 0x8C379A000000000000000000000000000000000000000000000000000000000 DUP2 MSTORE PUSH1 0x4 ADD PUSH2 0x946 SWAP1 PUSH2 0x1128 JUMP JUMPDEST PUSH1 0x40 MLOAD DUP1 SWAP2 SUB SWAP1 REVERT JUMPDEST PUSH2 0x958 DUP2 PUSH2 0xA92 JUMP JUMPDEST POP JUMP JUMPDEST PUSH2 0x963 PUSH2 0xA14 JUMP JUMPDEST PUSH0 PUSH20 0xFFFFFFFFFFFFFFFFFFFFFFFFFFFFFFFFFFFFFFFF AND DUP2 PUSH20 0xFFFFFFFFFFFFFFFFFFFFFFFFFFFFFFFFFFFFFFFF AND SUB PUSH2 0x9D1 JUMPI PUSH1 0x40 MLOAD PUSH32 0x8C379A000000000000000000000000000000000000000000000000000000000 DUP2 MSTORE PUSH1 0x4 ADD PUSH2 0x9C8 SWAP1 PUSH2 0x1190 JUMP JUMPDEST PUSH1 0x40 MLOAD DUP1 SWAP2 SUB SWAP1 REVERT JUMPDEST DUP1 PUSH1 0x1 PUSH0 PUSH2 0x100 EXP DUP2 SLOAD DUP2 PUSH20 0xFFFFFFFFFFFFFFFFFFFFFFFFFFFFFFFFFFFFFFFF MUL NOT AND SWAP1 DUP4 PUSH20 0xFFFFFFFFFFFFFFFFFFFFFFFFFFFFFFFFFFFFFFFF AND MUL OR SWAP1 SSTORE POP POP JUMP JUMPDEST PUSH2 0xA1C PUSH2 0xB53 JUMP JUMPDEST PUSH20 0xFFFFFFFFFFFFFFFFFFFFFFFFFFFFFFFFFFFFFFFF AND PUSH2 0xA3A PUSH2 0x89D JUMP JUMPDEST PUSH20 0xFFFFFFFFFFFFFFFFFFFFFFFFFFFFFFFFFFFFFFFF AND EQ PUSH2 0xA90 JUMPI PUSH1 0x40 MLOAD PUSH32 0x8C379A000000000000000000000000000000000000000000000000000000000 DUP2 MSTORE PUSH1 0x4 ADD PUSH2 0xA87 SWAP1 PUSH2 0x11F8 JUMP JUMPDEST PUSH1 0x40 MLOAD DUP1 SWAP2 SUB SWAP1 REVERT JUMPDEST JUMP JUMPDEST PUSH0 DUP1 PUSH0 SWAP1 SLOAD SWAP1 PUSH2 0x100 EXP SWAP1 DIV PUSH20 0xFFFFFFFFFFFFFFFFFFFFFFFFFFFFFFFFFFFFFFFF AND SWAP1 POP DUP2 PUSH0 DUP1 PUSH2 0x100 EXP DUP2 SLOAD DUP2 PUSH20 0xFFFFFFFFFFFFFFFFFFFFFFFFFFFFFFFFFFFFFFFF MUL NOT AND SWAP1 DUP4 PUSH20 0xFFFFFFFFFFFFFFFFFFFFFFFFFFFFFFFFFFFFFFFF AND MUL OR SWAP1 SSTORE POP DUP2 PUSH20 0xFFFFFFFFFFFFFFFFFFFFFFFFFFFFFFFFFFFFFFFF AND DUP2 PUSH20 0xFFFFFFFFFFFFFFFFFFFFFFFFFFFFFFFFFFFFFFFF AND PUSH32 0x8BE0079C531659141344CD1FD0A4F28419497F9722A3DAAFE3B4186F6B6457E0 PUSH1 0x40 MLOAD PUSH1 0x40 MLOAD DUP1 SWAP2 SUB SWAP1 LOG3 POP POP JUMP JUMPDEST PUSH0 CALLER SWAP1 POP SWAP1 JUMP JUMPDEST PUSH0 PUSH20 0xFFFFFFFFFFFFFFFFFFFFFFFFFFFFFFFFFFFFFFFF DUP3 AND SWAP1 POP SWAP2 SWAP1 POP JUMP JUMPDEST PUSH0 DUP2 SWAP1 POP SWAP2 SWAP1 POP JUMP JUMPDEST PUSH0 PUSH2 0xB9C PUSH2 0xB97 PUSH2 0xB92 DUP5 PUSH2 0xB5A JUMP JUMPDEST PUSH2 0xB79 JUMP JUMPDEST PUSH2 0xB5A JUMP JUMPDEST SWAP1 POP SWAP2 SWAP1 POP JUMP JUMPDEST PUSH0 PUSH2 0xBAD DUP3 PUSH2 0xB82 JUMP JUMPDEST SWAP1 POP SWAP2 SWAP1 POP JUMP JUMPDEST PUSH0 PUSH2 0xBBE DUP3 PUSH2 0xBA3 JUMP JUMPDEST SWAP1 POP SWAP2 SWAP1 POP JUMP JUMPDEST PUSH2 0xBCE DUP2 PUSH2 0xBB4 JUMP JUMPDEST DUP3 MSTORE POP POP JUMP JUMPDEST PUSH0 PUSH1 0x20 DUP3 ADD SWAP1 POP PUSH2 0xBE7 PUSH0 DUP4 ADD DUP5 PUSH2 0xBC5 JUMP JUMPDEST SWAP3 SWAP2 POP POP JUMP JUMPDEST PUSH0 DUP1 REVERT JUMPDEST PUSH0 DUP2 SWAP1 POP SWAP2 SWAP1 POP JUMP JUMPDEST PUSH2 0xC03 DUP2 PUSH2 0xBF1 JUMP JUMPDEST DUP2 EQ PUSH2 0xC0D JUMPI PUSH0 DUP1 REVERT JUMPDEST POP JUMP JUMPDEST PUSH0 DUP2 CALLDATALOAD SWAP1 POP PUSH2 0xC1E DUP2 PUSH2 0xBFA JUMP JUMPDEST SWAP3 SWAP2 POP POP JUMP JUMPDEST PUSH0 PUSH1 0x20 DUP3 DUP5 SUB SLT ISZERO PUSH2 0xC39 JUMPI PUSH2 0xC38 PUSH2 0xBED JUMP JUMPDEST JUMPDEST PUSH0 PUSH2 0xC46 DUP5 DUP3 DUP6 ADD PUSH2 0xC10 JUMP JUMPDEST SWAP2 POP POP SWAP3 SWAP2 POP POP JUMP JUMPDEST PUSH0 PUSH2 0xC59 DUP3 PUSH2 0xB5A JUMP JUMPDEST SWAP1 POP SWAP2 SWAP1 POP JUMP JUMPDEST PUSH2 0xC69 DUP2 PUSH2 0xC4F JUMP JUMPDEST DUP2 EQ PUSH2 0xC73 JUMPI PUSH0 DUP1 REVERT JUMPDEST POP JUMP JUMPDEST PUSH0 DUP2 CALLDATALOAD SWAP1 POP PUSH2 0xC84 DUP2 PUSH2 0xC60 JUMP JUMPDEST SWAP3 SWAP2 POP POP JUMP JUMPDEST PUSH0 PUSH1 0x20 DUP3 DUP5 SUB SLT ISZERO PUSH2 0xC9F JUMPI PUSH2 0xC9E PUSH2 0xBED JUMP JUMPDEST JUMPDEST PUSH0 PUSH2 0xCAC DUP5 DUP3 DUP6 ADD PUSH2 0xC76 JUMP JUMPDEST SWAP2 POP POP SWAP3 SWAP2 POP POP JUMP JUMPDEST PUSH2 0xCBE DUP2 PUSH2 0xBF1 JUMP JUMPDEST DUP3 MSTORE POP POP JUMP JUMPDEST PUSH0 PUSH1 0x20 DUP3 ADD SWAP1 POP PUSH2 0xCD7 PUSH0 DUP4 ADD DUP5 PUSH2 0xCB5 JUMP JUMPDEST SWAP3 SWAP2 POP POP JUMP JUMPDEST PUSH0 DUP1 PUSH1 0x40 DUP4 DUP6 SUB SLT ISZERO PUSH2 0xCF3 JUMPI PUSH2 0xCF2 PUSH2 0xBED JUMP JUMPDEST JUMPDEST PUSH0 PUSH2 0xD00 DUP6 DUP3 DUP7 ADD PUSH2 0xC76 JUMP JUMPDEST SWAP3 POP POP PUSH1 0x20 PUSH2 0xD11 DUP6 DUP3 DUP7 ADD PUSH2 0xC76 JUMP JUMPDEST SWAP2 POP POP SWAP3 POP SWAP3 SWAP1 POP JUMP JUMPDEST PUSH0 DUP2 ISZERO ISZERO SWAP1 POP SWAP2 SWAP1 POP JUMP JUMPDEST PUSH2 0xD2F DUP2 PUSH2 0xD1B JUMP JUMPDEST DUP3 MSTORE POP POP JUMP JUMPDEST PUSH0 PUSH1 0x20 DUP3 ADD SWAP1 POP PUSH2 0xD48 PUSH0 DUP4 ADD DUP5 PUSH2 0xD26 JUMP JUMPDEST SWAP3 SWAP2 POP POP JUMP JUMPDEST PUSH2 0xD57 DUP2 PUSH2 0xC4F JUMP JUMPDEST DUP3 MSTORE POP POP JUMP JUMPDEST PUSH0 PUSH1 0x20 DUP3 ADD SWAP1 POP PUSH2 0xD70 PUSH0 DUP4 ADD DUP5 PUSH2 0xD4E JUMP JUMPDEST SWAP3 SWAP2 POP POP JUMP JUMPDEST PUSH0 DUP3 DUP3 MSTORE PUSH1 0x20 DUP3 ADD SWAP1 POP SWAP3 SWAP2 POP POP JUMP JUMPDEST PUSH32 0x496E76616C69642071756F72756D2070657263656E7400000000000000000000 PUSH0 DUP3 ADD MSTORE POP JUMP JUMPDEST PUSH0 PUSH2 0xDBA PUSH1 0x16 DUP4 PUSH2 0xD76 JUMP JUMPDEST SWAP2 POP PUSH2 0xDC5 DUP3 PUSH2 0xD86 JUMP JUMPDEST PUSH1 0x20 DUP3 ADD SWAP1 POP SWAP2 SWAP1 POP JUMP JUMPDEST PUSH0 PUSH1 0x20 DUP3 ADD SWAP1 POP DUP2 DUP2 SUB PUSH0 DUP4 ADD MSTORE PUSH2 0xDE7 DUP2 PUSH2 0xDAE JUMP JUMPDEST SWAP1 POP SWAP2 SWAP1 POP JUMP JUMPDEST PUSH2 0xDF7 DUP2 PUSH2 0xD1B JUMP JUMPDEST DUP2 EQ PUSH2 0xE01 JUMPI PUSH0 DUP1 REVERT JUMPDEST POP JUMP JUMPDEST PUSH0 DUP2 MLOAD SWAP1 POP PUSH2 0xE12 DUP2 PUSH2 0xDEE JUMP JUMPDEST SWAP3 SWAP2 POP POP JUMP JUMPDEST PUSH0 PUSH1 0x20 DUP3 DUP5 SUB SLT ISZERO PUSH2 0xE2D JUMPI PUSH2 0xE2C PUSH2 0xBED JUMP JUMPDEST JUMPDEST PUSH0 PUSH2 0xE3A DUP5 DUP3 DUP6 ADD PUSH2 0xE04 JUMP JUMPDEST SWAP2 POP POP SWAP3 SWAP2 POP POP JUMP JUMPDEST PUSH32 0x4E6F7420612076616C6964206E6F646500000000000000000000000000000000 PUSH0 DUP3 ADD MSTORE POP JUMP JUMPDEST PUSH0 PUSH2 0xE77 PUSH1 0x10 DUP4 PUSH2 0xD76 JUMP JUMPDEST SWAP2 POP PUSH2 0xE82 DUP3 PUSH2 0xE43 JUMP JUMPDEST PUSH1 0x20 DUP3 ADD SWAP1 POP SWAP2 SWAP1 POP JUMP JUMPDEST PUSH0 PUSH1 0x20 DUP3 ADD SWAP1 POP DUP2 DUP2 SUB PUSH0 DUP4 ADD MSTORE PUSH2 0xEA4 DUP2 PUSH2 0xE6B JUMP JUMPDEST SWAP1 POP SWAP2 SWAP1 POP JUMP JUMPDEST PUSH32 0x546172676574206973206E6F7420612076616C6964206E6F6465000000000000 PUSH0 DUP3 ADD MSTORE POP JUMP JUMPDEST PUSH0 PUSH2 0xEDF PUSH1 0x1A DUP4 PUSH2 0xD76 JUMP JUMPDEST SWAP2 POP PUSH2 0xEEA DUP3 PUSH2 0xEAB JUMP JUMPDEST PUSH1 0x20 DUP3 ADD SWAP1 POP SWAP2 SWAP1 POP JUMP JUMPDEST PUSH0 PUSH1 0x20 DUP3 ADD SWAP1 POP DUP2 DUP2 SUB PUSH0 DUP4 ADD MSTORE PUSH2 0xF0C DUP2 PUSH2 0xED3 JUMP JUMPDEST SWAP1 POP SWAP2 SWAP1 POP JUMP JUMPDEST PUSH32 0x4E6F646520616C7265616479207265706F727465640000000000000000000000 PUSH0 DUP3 ADD MSTORE POP JUMP JUMPDEST PUSH0 PUSH2 0xF47 PUSH1 0x15 DUP4 PUSH2 0xD76 JUMP JUMPDEST SWAP2 POP PUSH2 0xF52 DUP3 PUSH2 0xF13 JUMP JUMPDEST PUSH1 0x20 DUP3 ADD SWAP1 POP SWAP2 SWAP1 POP JUMP JUMPDEST PUSH0 PUSH1 0x20 DUP3 ADD SWAP1 POP DUP2 DUP2 SUB PUSH0 DUP4 ADD MSTORE PUSH2 0xF74 DUP2 PUSH2 0xF3B JUMP JUMPDEST SWAP1 POP SWAP2 SWAP1 POP JUMP JUMPDEST PUSH32 0x4E487B7100000000000000000000000000000000000000000000000000000000 PUSH0 MSTORE PUSH1 0x11 PUSH1 0x4 MSTORE PUSH1 0x24 PUSH0 REVERT JUMPDEST PUSH0 PUSH2 0xFB2 DUP3 PUSH2 0xBF1 JUMP JUMPDEST SWAP2 POP PUSH2 0xFBD DUP4 PUSH2 0xBF1 JUMP JUMPDEST SWAP3 POP DUP3 DUP3 ADD SWAP1 POP DUP1 DUP3 GT ISZERO PUSH2 0xFD5 JUMPI PUSH2 0xFD4 PUSH2 0xF7B JUMP JUMPDEST JUMPDEST SWAP3 SWAP2 POP POP JUMP JUMPDEST PUSH0 DUP2 MLOAD SWAP1 POP PUSH2 0xFE9 DUP2 PUSH2 0xBFA JUMP JUMPDEST SWAP3 SWAP2 POP POP JUMP JUMPDEST PUSH0 PUSH1 0x20 DUP3 DUP5 SUB SLT ISZERO PUSH2 0x1004 JUMPI PUSH2 0x1003 PUSH2 0xBED JUMP JUMPDEST JUMPDEST PUSH0 PUSH2 0x1011 DUP5 DUP3 DUP6 ADD PUSH2 0xFDB JUMP JUMPDEST SWAP2 POP POP SWAP3 SWAP2 POP POP JUMP JUMPDEST PUSH0 PUSH2 0x1024 DUP3 PUSH2 0xBF1 JUMP JUMPDEST SWAP2 POP PUSH2 0x102F DUP4 PUSH2 0xBF1 JUMP JUMPDEST SWAP3 POP DUP3 DUP3 MUL PUSH2 0x103D DUP2 PUSH2 0xBF1 JUMP JUMPDEST SWAP2 POP DUP3 DUP3 DIV DUP5 EQ DUP4 ISZERO OR PUSH2 0x1054 JUMPI PUSH2 0x1053 PUSH2 0xF7B JUMP JUMPDEST JUMPDEST POP SWAP3 SWAP2 POP POP JUMP JUMPDEST PUSH32 0x4E487B7100000000000000000000000000000000000000000000000000000000 PUSH0 MSTORE PUSH1 0x12 PUSH1 0x4 MSTORE PUSH1 0x24 PUSH0 REVERT JUMPDEST PUSH0 PUSH2 0x1092 DUP3 PUSH2 0xBF1 JUMP JUMPDEST SWAP2 POP PUSH2 0x109D DUP4 PUSH2 0xBF1 JUMP JUMPDEST SWAP3 POP DUP3 PUSH2 0x10AD JUMPI PUSH2 0x10AC PUSH2 0x105B JUMP JUMPDEST JUMPDEST DUP3 DUP3 DIV SWAP1 POP SWAP3 SWAP2 POP POP JUMP JUMPDEST PUSH32 0x4F776E61626C653A206E6577206F776E657220697320746865207A65726F2061 PUSH0 DUP3 ADD MSTORE PUSH32 0x6464726573730000000000000000000000000000000000000000000000000000 PUSH1 0x20 DUP3 ADD MSTORE POP JUMP JUMPDEST PUSH0 PUSH2 0x1112 PUSH1 0x26 DUP4 PUSH2 0xD76 JUMP JUMPDEST SWAP2 POP PUSH2 0x111D DUP3 PUSH2 0x10B8 JUMP JUMPDEST PUSH1 0x40 DUP3 ADD SWAP1 POP SWAP2 SWAP1 POP JUMP JUMPDEST PUSH0 PUSH1 0x20 DUP3 ADD SWAP1 POP DUP2 DUP2 SUB PUSH0 DUP4 ADD MSTORE PUSH2 0x113F DUP2 PUSH2 0x1106 JUMP JUMPDEST SWAP1 POP SWAP2 SWAP1 POP JUMP JUMPDEST PUSH32 0x496E76616C696420616464726573730000000000000000000000000000000000 PUSH0 DUP3 ADD MSTORE POP JUMP JUMPDEST PUSH0 PUSH2 0x117A PUSH1 0xF DUP4 PUSH2 0xD76 JUMP JUMPDEST SWAP2 POP PUSH2 0x1185 DUP3 PUSH2 0x1146 JUMP JUMPDEST PUSH1 0x20 DUP3 ADD SWAP1 POP SWAP2 SWAP1 POP JUMP JUMPDEST PUSH0 PUSH1 0x20 DUP3 ADD SWAP1 POP DUP2 DUP2 SUB PUSH0 DUP4 ADD MSTORE PUSH2 0x11A7 DUP2 PUSH2 0x116E JUMP JUMPDEST SWAP1 POP SWAP2 SWAP1 POP JUMP JUMPDEST PUSH32 0x4F776E61626C653A2063616C6C6572206973206E6F7420746865206F776E6572 PUSH0 DUP3 ADD MSTORE POP JUMP JUMPDEST PUSH0 PUSH2 0x11E2 PUSH1 0x20 DUP4 PUSH2 0xD76 JUMP JUMPDEST SWAP2 POP PUSH2 0x11ED DUP3 PUSH2 0x11AE JUMP JUMPDEST PUSH1 0x20 DUP3 ADD SWAP1 POP SWAP2 SWAP1 POP JUMP JUMPDEST PUSH0 PUSH1 0x20 DUP3 ADD SWAP1 POP DUP2 DUP2 SUB PUSH0 DUP4 ADD MSTORE PUSH2 0x120F DUP2 PUSH2 0x11D6 JUMP JUMPDEST SWAP1 POP SWAP2 SWAP1 POP JUMP INVALID LOG2 PUSH5 0x6970667358 0x22 SLT KECCAK256 PUSH17 0xE2DB0C711C5052DB8DA3231E21B9575EFD 0xBE PUSH14 0x632F45C786FC85DBF7333AF26473 PUSH16 0x6C634300081A00330000000000000000 "
				},
				"gasEstimates": {
					"creation": {
						"codeDepositCost": "936800",
						"executionCost": "infinite",
						"totalCost": "infinite"
					},
					"external": {
						"nodeStorage()": "infinite",
						"owner()": "2537",
						"quorumThresholdPercent()": "2492",
						"renounceOwnership()": "30390",
						"reportLogs(address,address)": "infinite",
						"reportNode(address)": "infinite",
						"reportedNodes(address)": "2846",
						"transferOwnership(address)": "30797",
						"updateNodeStorage(address)": "27098",
						"updateQuorumThreshold(uint256)": "infinite"
					}
				},
				"methodIdentifiers": {
					"nodeStorage()": "1b14ca9b",
					"owner()": "8da5cb5b",
					"quorumThresholdPercent()": "3384d47d",
					"renounceOwnership()": "715018a6",
					"reportLogs(address,address)": "648a3a92",
					"reportNode(address)": "30034df1",
					"reportedNodes(address)": "c3f37225",
					"transferOwnership(address)": "f2fde38b",
					"updateNodeStorage(address)": "f36a6c02",
					"updateQuorumThreshold(uint256)": "210a5e87"
				}
			},
			"storageLayout": {
				"storage": [
					{
						"astId": 7,
						"contract": "contracts/Voting.sol:Voting",
						"label": "_owner",
						"offset": 0,
						"slot": "0",
						"type": "t_address"
					},
					{
						"astId": 151,
						"contract": "contracts/Voting.sol:Voting",
						"label": "nodeStorage",
						"offset": 0,
						"slot": "1",
						"type": "t_contract(INodesStorage)400"
					},
					{
						"astId": 153,
						"contract": "contracts/Voting.sol:Voting",
						"label": "quorumThresholdPercent",
						"offset": 0,
						"slot": "2",
						"type": "t_uint256"
					},
					{
						"astId": 157,
						"contract": "contracts/Voting.sol:Voting",
						"label": "reportedNodes",
						"offset": 0,
						"slot": "3",
						"type": "t_mapping(t_address,t_uint256)"
					},
					{
						"astId": 163,
						"contract": "contracts/Voting.sol:Voting",
						"label": "reportLogs",
						"offset": 0,
						"slot": "4",
						"type": "t_mapping(t_address,t_mapping(t_address,t_bool))"
					}
				],
				"types": {
					"t_address": {
						"encoding": "inplace",
						"label": "address",
						"numberOfBytes": "20"
					},
					"t_bool": {
						"encoding": "inplace",
						"label": "bool",
						"numberOfBytes": "1"
					},
					"t_contract(INodesStorage)400": {
						"encoding": "inplace",
						"label": "contract INodesStorage",
						"numberOfBytes": "20"
					},
					"t_mapping(t_address,t_bool)": {
						"encoding": "mapping",
						"key": "t_address",
						"label": "mapping(address => bool)",
						"numberOfBytes": "32",
						"value": "t_bool"
					},
					"t_mapping(t_address,t_mapping(t_address,t_bool))": {
						"encoding": "mapping",
						"key": "t_address",
						"label": "mapping(address => mapping(address => bool))",
						"numberOfBytes": "32",
						"value": "t_mapping(t_address,t_bool)"
					},
					"t_mapping(t_address,t_uint256)": {
						"encoding": "mapping",
						"key": "t_address",
						"label": "mapping(address => uint256)",
						"numberOfBytes": "32",
						"value": "t_uint256"
					},
					"t_uint256": {
						"encoding": "inplace",
						"label": "uint256",
						"numberOfBytes": "32"
					}
				}
			},
			"userdoc": {
				"kind": "user",
				"methods": {},
				"version": 1
			}
		}
	}
}